{
  "address": "0xDDcAFBE6B9460320Ce9997c312B3FEFfEA893beF",
  "abi": [
    {
      "inputs": [
        {
          "internalType": "address",
          "name": "_asset",
          "type": "address"
        },
        {
          "internalType": "address",
          "name": "_vault",
          "type": "address"
        },
        {
          "internalType": "address",
          "name": "_governance",
          "type": "address"
        }
      ],
      "stateMutability": "nonpayable",
      "type": "constructor"
    },
    {
      "inputs": [],
      "name": "BASE_BPS",
      "outputs": [
        {
          "internalType": "uint256",
          "name": "",
          "type": "uint256"
        }
      ],
      "stateMutability": "view",
      "type": "function"
    },
    {
      "inputs": [],
      "name": "asset",
      "outputs": [
        {
          "internalType": "address",
          "name": "",
          "type": "address"
        }
      ],
      "stateMutability": "view",
      "type": "function"
    },
    {
      "inputs": [
        {
          "internalType": "address",
          "name": "",
          "type": "address"
        }
      ],
      "name": "fees",
      "outputs": [
        {
          "internalType": "uint256",
          "name": "managementFee",
          "type": "uint256"
        },
        {
          "internalType": "uint256",
          "name": "performanceFee",
          "type": "uint256"
        },
        {
          "internalType": "uint256",
          "name": "refundRatio",
          "type": "uint256"
        }
      ],
      "stateMutability": "view",
      "type": "function"
    },
    {
      "inputs": [],
      "name": "governance",
      "outputs": [
        {
          "internalType": "address",
          "name": "",
          "type": "address"
        }
      ],
      "stateMutability": "view",
      "type": "function"
    },
    {
      "inputs": [
        {
          "internalType": "address",
          "name": "strategy",
          "type": "address"
        },
        {
          "internalType": "uint256",
          "name": "gain",
          "type": "uint256"
        },
        {
          "internalType": "uint256",
          "name": "loss",
          "type": "uint256"
        }
      ],
      "name": "report",
      "outputs": [
        {
          "internalType": "uint256",
          "name": "performanceFee",
          "type": "uint256"
        },
        {
          "internalType": "uint256",
          "name": "refund",
          "type": "uint256"
        }
      ],
      "stateMutability": "nonpayable",
      "type": "function"
    },
    {
      "inputs": [
        {
          "internalType": "address",
          "name": "strategy",
          "type": "address"
        },
        {
          "internalType": "uint256",
          "name": "_managementFee",
          "type": "uint256"
        }
      ],
      "name": "setManagementFee",
      "outputs": [],
      "stateMutability": "nonpayable",
      "type": "function"
    },
    {
      "inputs": [
        {
          "internalType": "address",
          "name": "strategy",
          "type": "address"
        },
        {
          "internalType": "uint256",
          "name": "_performanceFee",
          "type": "uint256"
        }
      ],
      "name": "setPerformanceFee",
      "outputs": [],
      "stateMutability": "nonpayable",
      "type": "function"
    },
    {
      "inputs": [
        {
          "internalType": "address",
          "name": "strategy",
          "type": "address"
        },
        {
          "internalType": "uint256",
          "name": "_refundRatio",
          "type": "uint256"
        }
      ],
      "name": "setRefundRatio",
      "outputs": [],
      "stateMutability": "nonpayable",
      "type": "function"
    },
    {
      "inputs": [],
      "name": "vault",
      "outputs": [
        {
          "internalType": "address",
          "name": "",
          "type": "address"
        }
      ],
      "stateMutability": "view",
      "type": "function"
    },
    {
      "inputs": [
        {
          "internalType": "uint256",
          "name": "amount",
          "type": "uint256"
        },
        {
          "internalType": "address",
          "name": "receiver",
          "type": "address"
        }
      ],
      "name": "withdraw",
      "outputs": [],
      "stateMutability": "nonpayable",
      "type": "function"
    }
  ],
  "transactionHash": "0xbf0f16662734622a0a38016da2498d3772452d712519dc74ea6cb8b50e05f85b",
  "args": [
    "0x833589fCD6eDb6E08f4c7C32D4f71b54bdA02913",
    "0x3eBBA4De3ff7221aaFd3863318C96E9f4dbCfBDE",
    "0xEE6Eacc608A4524DF5Cb1a33CE7840139a8deA1A"
  ],
  "numDeployments": 1,
  "solcInputHash": "34fc0fdf67e1c2b504c006dca32d56f8",
  "bytecode": "0x6080346100a057601f6106c138819003918201601f19168301916001600160401b038311848410176100a5578084926060946040528339810103126100a057610047816100bb565b906100606040610059602084016100bb565b92016100bb565b60018060a01b0380928160018060a01b0319951685600054161760005516836001541617600155169060025416176002556040516105f190816100d08239f35b600080fd5b634e487b7160e01b600052604160045260246000fd5b51906001600160a01b03821682036100a05756fe6040608081526004908136101561001557600080fd5b600091823560e01c9081628b9b9214610390578162f714ce146102e457816338d52e0f146102bc5781635aa6e675146102935781636142d40914610276578163921f8a8f146102265781639f78d78014610198578163b8dfa8e21461010757508063faaebd21146100ba5763fbfa77cf1461008f57600080fd5b346100b657816003193601126100b65760015490516001600160a01b039091168152602090f35b5080fd5b50346100b65760203660031901126100b65760609181906001600160a01b036100e1610427565b168152600360205220805491600260018301549201549181519384526020840152820152f35b91905034610194578060031936011261019457610122610427565b600254602435936001600160a01b0392916101409084163314610442565b61271085116101585750168352600360205282205580f35b606490602085519162461bcd60e51b83528201526016602482015275496e76616c6964206d616e6167656d656e742066656560501b6044820152fd5b8280fd5b919050346101945780600319360112610194576101b3610427565b600254602435936001600160a01b0392916101d19084163314610442565b61271085116101ec5750168352600360205282206002015580f35b606490602085519162461bcd60e51b83528201526014602482015273496e76616c696420726566756e6420726174696f60601b6044820152fd5b8284346102735760603660031901126102735750610267610245610427565b61025a60018060a01b03600154163314610442565b60443590602435906104e0565b82519182526020820152f35b80fd5b5050346100b657816003193601126100b657602090516127108152f35b5050346100b657816003193601126100b65760025490516001600160a01b039091168152602090f35b5050346100b657816003193601126100b657905490516001600160a01b039091168152602090f35b919050346101945780600319360112610194576001600160a01b036024358181169081900361038c57606482610321602094600254163314610442565b60015416948685519687948593632d182be560e21b855280359085015260248401523060448401525af1908115610383575061035b575080f35b602090813d831161037c575b610371818361047f565b810103126102735780f35b503d610367565b513d84823e3d90fd5b8480fd5b919050346101945780600319360112610194576103ab610427565b600254602435936001600160a01b0392916103c99084163314610442565b61271085116103e45750168352600360205282206001015580f35b606490602085519162461bcd60e51b8352820152601760248201527f496e76616c696420706572666f726d616e6365206665650000000000000000006044820152fd5b600435906001600160a01b038216820361043d57565b600080fd5b1561044957565b60405162461bcd60e51b815260206004820152600e60248201526d4e6f7420676f7665726e616e636560901b6044820152606490fd5b90601f8019910116810190811067ffffffffffffffff8211176104a157604052565b634e487b7160e01b600052604160045260246000fd5b818102929181159184041417156104ca57565b634e487b7160e01b600052601160045260246000fd5b6001600160a01b039081166000908152600360205260408120909493909190859084156105215750505061271091600161051c920154906104b7565b049190565b61053791945060026127109397940154906104b7565b049384610545575b50509190565b6020829182541660446040518094819363095ea7b360e01b83523360048401528a60248401525af180156105b0571561053f576020813d6020116105a8575b816105916020938361047f565b810103126100b6575180151503610273578061053f565b3d9150610584565b6040513d84823e3d90fdfea2646970667358221220b54ebf061cd8e5a146539f4aa51c1c46da98b0df0e73aa333aeafc23c39db02564736f6c63430008180033",
  "devdoc": {
    "kind": "dev",
    "methods": {},
    "version": 1
  },
  "userdoc": {
    "kind": "user",
    "methods": {},
    "version": 1
  },
  "storageLayout": {
    "storage": [
      {
        "astId": 7947,
        "contract": "contracts/modules/Accountant.sol:Accountant",
        "label": "asset",
        "offset": 0,
        "slot": "0",
        "type": "t_address"
      },
      {
        "astId": 7949,
        "contract": "contracts/modules/Accountant.sol:Accountant",
        "label": "vault",
        "offset": 0,
        "slot": "1",
        "type": "t_address"
      },
      {
        "astId": 7951,
        "contract": "contracts/modules/Accountant.sol:Accountant",
        "label": "governance",
        "offset": 0,
        "slot": "2",
        "type": "t_address"
      },
      {
        "astId": 7956,
        "contract": "contracts/modules/Accountant.sol:Accountant",
        "label": "fees",
        "offset": 0,
        "slot": "3",
        "type": "t_mapping(t_address,t_struct(Fee)7945_storage)"
      }
    ],
    "types": {
      "t_address": {
        "encoding": "inplace",
        "label": "address",
        "numberOfBytes": "20"
      },
      "t_mapping(t_address,t_struct(Fee)7945_storage)": {
        "encoding": "mapping",
        "key": "t_address",
        "label": "mapping(address => struct Accountant.Fee)",
        "numberOfBytes": "32",
        "value": "t_struct(Fee)7945_storage"
      },
      "t_struct(Fee)7945_storage": {
        "encoding": "inplace",
        "label": "struct Accountant.Fee",
        "members": [
          {
            "astId": 7940,
            "contract": "contracts/modules/Accountant.sol:Accountant",
            "label": "managementFee",
            "offset": 0,
            "slot": "0",
            "type": "t_uint256"
          },
          {
            "astId": 7942,
            "contract": "contracts/modules/Accountant.sol:Accountant",
            "label": "performanceFee",
            "offset": 0,
            "slot": "1",
            "type": "t_uint256"
          },
          {
            "astId": 7944,
            "contract": "contracts/modules/Accountant.sol:Accountant",
            "label": "refundRatio",
            "offset": 0,
            "slot": "2",
            "type": "t_uint256"
          }
        ],
        "numberOfBytes": "96"
      },
      "t_uint256": {
        "encoding": "inplace",
        "label": "uint256",
        "numberOfBytes": "32"
      }
    }
  }
}