{
  "address": "0xDAd9C8B0F883d297Fa5496a3fb48445A8567f1aA",
  "abi": [
    {
      "inputs": [],
      "name": "AccessControlBadConfirmation",
      "type": "error"
    },
    {
      "inputs": [
        {
          "internalType": "address",
          "name": "account",
          "type": "address"
        },
        {
          "internalType": "bytes32",
          "name": "neededRole",
          "type": "bytes32"
        }
      ],
      "name": "AccessControlUnauthorizedAccount",
      "type": "error"
    },
    {
      "inputs": [
        {
          "internalType": "address",
          "name": "spender",
          "type": "address"
        },
        {
          "internalType": "uint256",
          "name": "allowance",
          "type": "uint256"
        },
        {
          "internalType": "uint256",
          "name": "needed",
          "type": "uint256"
        }
      ],
      "name": "ERC20InsufficientAllowance",
      "type": "error"
    },
    {
      "inputs": [
        {
          "internalType": "address",
          "name": "sender",
          "type": "address"
        },
        {
          "internalType": "uint256",
          "name": "balance",
          "type": "uint256"
        },
        {
          "internalType": "uint256",
          "name": "needed",
          "type": "uint256"
        }
      ],
      "name": "ERC20InsufficientBalance",
      "type": "error"
    },
    {
      "inputs": [
        {
          "internalType": "address",
          "name": "approver",
          "type": "address"
        }
      ],
      "name": "ERC20InvalidApprover",
      "type": "error"
    },
    {
      "inputs": [
        {
          "internalType": "address",
          "name": "receiver",
          "type": "address"
        }
      ],
      "name": "ERC20InvalidReceiver",
      "type": "error"
    },
    {
      "inputs": [
        {
          "internalType": "address",
          "name": "sender",
          "type": "address"
        }
      ],
      "name": "ERC20InvalidSender",
      "type": "error"
    },
    {
      "inputs": [
        {
          "internalType": "address",
          "name": "spender",
          "type": "address"
        }
      ],
      "name": "ERC20InvalidSpender",
      "type": "error"
    },
    {
      "inputs": [
        {
          "internalType": "address",
          "name": "receiver",
          "type": "address"
        },
        {
          "internalType": "uint256",
          "name": "assets",
          "type": "uint256"
        },
        {
          "internalType": "uint256",
          "name": "max",
          "type": "uint256"
        }
      ],
      "name": "ERC4626ExceededMaxDeposit",
      "type": "error"
    },
    {
      "inputs": [
        {
          "internalType": "address",
          "name": "receiver",
          "type": "address"
        },
        {
          "internalType": "uint256",
          "name": "shares",
          "type": "uint256"
        },
        {
          "internalType": "uint256",
          "name": "max",
          "type": "uint256"
        }
      ],
      "name": "ERC4626ExceededMaxMint",
      "type": "error"
    },
    {
      "inputs": [
        {
          "internalType": "address",
          "name": "owner",
          "type": "address"
        },
        {
          "internalType": "uint256",
          "name": "shares",
          "type": "uint256"
        },
        {
          "internalType": "uint256",
          "name": "max",
          "type": "uint256"
        }
      ],
      "name": "ERC4626ExceededMaxRedeem",
      "type": "error"
    },
    {
      "inputs": [
        {
          "internalType": "address",
          "name": "owner",
          "type": "address"
        },
        {
          "internalType": "uint256",
          "name": "assets",
          "type": "uint256"
        },
        {
          "internalType": "uint256",
          "name": "max",
          "type": "uint256"
        }
      ],
      "name": "ERC4626ExceededMaxWithdraw",
      "type": "error"
    },
    {
      "inputs": [],
      "name": "InvalidInitialization",
      "type": "error"
    },
    {
      "inputs": [],
      "name": "NotInitializing",
      "type": "error"
    },
    {
      "inputs": [],
      "name": "ReentrancyGuardReentrantCall",
      "type": "error"
    },
    {
      "anonymous": false,
      "inputs": [
        {
          "indexed": true,
          "internalType": "address",
          "name": "owner",
          "type": "address"
        },
        {
          "indexed": true,
          "internalType": "address",
          "name": "spender",
          "type": "address"
        },
        {
          "indexed": false,
          "internalType": "uint256",
          "name": "value",
          "type": "uint256"
        }
      ],
      "name": "Approval",
      "type": "event"
    },
    {
      "anonymous": false,
      "inputs": [
        {
          "indexed": true,
          "internalType": "address",
          "name": "strategy",
          "type": "address"
        },
        {
          "indexed": false,
          "internalType": "uint256",
          "name": "amount",
          "type": "uint256"
        }
      ],
      "name": "DebtPurchased",
      "type": "event"
    },
    {
      "anonymous": false,
      "inputs": [
        {
          "indexed": true,
          "internalType": "address",
          "name": "strategy",
          "type": "address"
        },
        {
          "indexed": false,
          "internalType": "uint256",
          "name": "currentDebt",
          "type": "uint256"
        },
        {
          "indexed": false,
          "internalType": "uint256",
          "name": "newDebt",
          "type": "uint256"
        }
      ],
      "name": "DebtUpdated",
      "type": "event"
    },
    {
      "anonymous": false,
      "inputs": [
        {
          "indexed": true,
          "internalType": "address",
          "name": "sender",
          "type": "address"
        },
        {
          "indexed": true,
          "internalType": "address",
          "name": "owner",
          "type": "address"
        },
        {
          "indexed": false,
          "internalType": "uint256",
          "name": "assets",
          "type": "uint256"
        },
        {
          "indexed": false,
          "internalType": "uint256",
          "name": "shares",
          "type": "uint256"
        }
      ],
      "name": "Deposit",
      "type": "event"
    },
    {
      "anonymous": false,
      "inputs": [
        {
          "indexed": true,
          "internalType": "address",
          "name": "user",
          "type": "address"
        },
        {
          "indexed": false,
          "internalType": "uint256",
          "name": "amount",
          "type": "uint256"
        },
        {
          "indexed": false,
          "internalType": "uint256",
          "name": "shares",
          "type": "uint256"
        }
      ],
      "name": "Deposited",
      "type": "event"
    },
    {
      "anonymous": false,
      "inputs": [
        {
          "indexed": false,
          "internalType": "uint256",
          "name": "oldFee",
          "type": "uint256"
        },
        {
          "indexed": false,
          "internalType": "uint256",
          "name": "newFee",
          "type": "uint256"
        }
      ],
      "name": "FeeUpdated",
      "type": "event"
    },
    {
      "anonymous": false,
      "inputs": [
        {
          "indexed": false,
          "internalType": "address",
          "name": "newGovernment",
          "type": "address"
        }
      ],
      "name": "GovernmentChanged",
      "type": "event"
    },
    {
      "anonymous": false,
      "inputs": [
        {
          "indexed": false,
          "internalType": "uint64",
          "name": "version",
          "type": "uint64"
        }
      ],
      "name": "Initialized",
      "type": "event"
    },
    {
      "anonymous": false,
      "inputs": [
        {
          "indexed": true,
          "internalType": "address",
          "name": "feeRecipient",
          "type": "address"
        },
        {
          "indexed": false,
          "internalType": "uint256",
          "name": "amount",
          "type": "uint256"
        }
      ],
      "name": "ManagementFeeMinted",
      "type": "event"
    },
    {
      "anonymous": false,
      "inputs": [
        {
          "indexed": false,
          "internalType": "uint256",
          "name": "oldRate",
          "type": "uint256"
        },
        {
          "indexed": false,
          "internalType": "uint256",
          "name": "newRate",
          "type": "uint256"
        }
      ],
      "name": "RateUpdated",
      "type": "event"
    },
    {
      "anonymous": false,
      "inputs": [
        {
          "indexed": true,
          "internalType": "address",
          "name": "user",
          "type": "address"
        },
        {
          "indexed": false,
          "internalType": "uint256",
          "name": "shares",
          "type": "uint256"
        }
      ],
      "name": "RequestedWithdraw",
      "type": "event"
    },
    {
      "anonymous": false,
      "inputs": [
        {
          "indexed": true,
          "internalType": "bytes32",
          "name": "role",
          "type": "bytes32"
        },
        {
          "indexed": true,
          "internalType": "bytes32",
          "name": "previousAdminRole",
          "type": "bytes32"
        },
        {
          "indexed": true,
          "internalType": "bytes32",
          "name": "newAdminRole",
          "type": "bytes32"
        }
      ],
      "name": "RoleAdminChanged",
      "type": "event"
    },
    {
      "anonymous": false,
      "inputs": [
        {
          "indexed": true,
          "internalType": "bytes32",
          "name": "role",
          "type": "bytes32"
        },
        {
          "indexed": true,
          "internalType": "address",
          "name": "account",
          "type": "address"
        },
        {
          "indexed": true,
          "internalType": "address",
          "name": "sender",
          "type": "address"
        }
      ],
      "name": "RoleGranted",
      "type": "event"
    },
    {
      "anonymous": false,
      "inputs": [
        {
          "indexed": true,
          "internalType": "bytes32",
          "name": "role",
          "type": "bytes32"
        },
        {
          "indexed": true,
          "internalType": "address",
          "name": "account",
          "type": "address"
        },
        {
          "indexed": true,
          "internalType": "address",
          "name": "sender",
          "type": "address"
        }
      ],
      "name": "RoleRevoked",
      "type": "event"
    },
    {
      "anonymous": false,
      "inputs": [
        {
          "indexed": true,
          "internalType": "address",
          "name": "strategy",
          "type": "address"
        },
        {
          "indexed": false,
          "internalType": "enum IVault.StrategyChangeType",
          "name": "changeType",
          "type": "uint8"
        }
      ],
      "name": "StrategyChanged",
      "type": "event"
    },
    {
      "anonymous": false,
      "inputs": [
        {
          "indexed": true,
          "internalType": "address",
          "name": "strategy",
          "type": "address"
        },
        {
          "indexed": false,
          "internalType": "uint256",
          "name": "gain",
          "type": "uint256"
        },
        {
          "indexed": false,
          "internalType": "uint256",
          "name": "loss",
          "type": "uint256"
        },
        {
          "indexed": false,
          "internalType": "uint256",
          "name": "currentDebt",
          "type": "uint256"
        },
        {
          "indexed": false,
          "internalType": "uint256",
          "name": "performanceFee",
          "type": "uint256"
        },
        {
          "indexed": false,
          "internalType": "uint256",
          "name": "refund",
          "type": "uint256"
        }
      ],
      "name": "StrategyReported",
      "type": "event"
    },
    {
      "anonymous": false,
      "inputs": [
        {
          "indexed": true,
          "internalType": "address",
          "name": "from",
          "type": "address"
        },
        {
          "indexed": true,
          "internalType": "address",
          "name": "to",
          "type": "address"
        },
        {
          "indexed": false,
          "internalType": "uint256",
          "name": "value",
          "type": "uint256"
        }
      ],
      "name": "Transfer",
      "type": "event"
    },
    {
      "anonymous": false,
      "inputs": [],
      "name": "TreasuryTransferred",
      "type": "event"
    },
    {
      "anonymous": false,
      "inputs": [
        {
          "indexed": true,
          "internalType": "address",
          "name": "accountant",
          "type": "address"
        }
      ],
      "name": "UpdateAccountant",
      "type": "event"
    },
    {
      "anonymous": false,
      "inputs": [
        {
          "indexed": false,
          "internalType": "bool",
          "name": "autoAllocate",
          "type": "bool"
        }
      ],
      "name": "UpdateAutoAllocate",
      "type": "event"
    },
    {
      "anonymous": false,
      "inputs": [
        {
          "indexed": false,
          "internalType": "address[]",
          "name": "newDefaultQueue",
          "type": "address[]"
        }
      ],
      "name": "UpdateDefaultQueue",
      "type": "event"
    },
    {
      "anonymous": false,
      "inputs": [
        {
          "indexed": false,
          "internalType": "uint256",
          "name": "depositLimit",
          "type": "uint256"
        }
      ],
      "name": "UpdateDepositLimit",
      "type": "event"
    },
    {
      "anonymous": false,
      "inputs": [
        {
          "indexed": true,
          "internalType": "address",
          "name": "depositLimitModule",
          "type": "address"
        }
      ],
      "name": "UpdateDepositLimitModule",
      "type": "event"
    },
    {
      "anonymous": false,
      "inputs": [
        {
          "indexed": false,
          "internalType": "address",
          "name": "feeRecipient",
          "type": "address"
        }
      ],
      "name": "UpdateFeeRecipient",
      "type": "event"
    },
    {
      "anonymous": false,
      "inputs": [
        {
          "indexed": false,
          "internalType": "uint256",
          "name": "managementFee",
          "type": "uint256"
        }
      ],
      "name": "UpdateManagementFee",
      "type": "event"
    },
    {
      "anonymous": false,
      "inputs": [
        {
          "indexed": false,
          "internalType": "uint256",
          "name": "minimumTotalIdle",
          "type": "uint256"
        }
      ],
      "name": "UpdateMinimumTotalIdle",
      "type": "event"
    },
    {
      "anonymous": false,
      "inputs": [
        {
          "indexed": false,
          "internalType": "uint256",
          "name": "profitMaxUnlockTime",
          "type": "uint256"
        }
      ],
      "name": "UpdateProfitMaxUnlockTime",
      "type": "event"
    },
    {
      "anonymous": false,
      "inputs": [
        {
          "indexed": false,
          "internalType": "bool",
          "name": "useDefaultQueue",
          "type": "bool"
        }
      ],
      "name": "UpdateUseDefaultQueue",
      "type": "event"
    },
    {
      "anonymous": false,
      "inputs": [
        {
          "indexed": true,
          "internalType": "address",
          "name": "withdrawLimitModule",
          "type": "address"
        }
      ],
      "name": "UpdateWithdrawLimitModule",
      "type": "event"
    },
    {
      "anonymous": false,
      "inputs": [
        {
          "indexed": true,
          "internalType": "address",
          "name": "sender",
          "type": "address"
        },
        {
          "indexed": true,
          "internalType": "address",
          "name": "receiver",
          "type": "address"
        },
        {
          "indexed": true,
          "internalType": "address",
          "name": "owner",
          "type": "address"
        },
        {
          "indexed": false,
          "internalType": "uint256",
          "name": "assets",
          "type": "uint256"
        },
        {
          "indexed": false,
          "internalType": "uint256",
          "name": "shares",
          "type": "uint256"
        }
      ],
      "name": "Withdraw",
      "type": "event"
    },
    {
      "anonymous": false,
      "inputs": [
        {
          "indexed": true,
          "internalType": "address",
          "name": "user",
          "type": "address"
        },
        {
          "indexed": false,
          "internalType": "uint256",
          "name": "shares",
          "type": "uint256"
        },
        {
          "indexed": false,
          "internalType": "uint256",
          "name": "amount",
          "type": "uint256"
        },
        {
          "indexed": false,
          "internalType": "uint256",
          "name": "fee",
          "type": "uint256"
        }
      ],
      "name": "Withdrawn",
      "type": "event"
    },
    {
      "inputs": [],
      "name": "DEFAULT_ADMIN_ROLE",
      "outputs": [
        {
          "internalType": "bytes32",
          "name": "",
          "type": "bytes32"
        }
      ],
      "stateMutability": "view",
      "type": "function"
    },
    {
      "inputs": [
        {
          "internalType": "address",
          "name": "strategy",
          "type": "address"
        },
        {
          "internalType": "bool",
          "name": "addToQueue",
          "type": "bool"
        }
      ],
      "name": "addStrategy",
      "outputs": [],
      "stateMutability": "nonpayable",
      "type": "function"
    },
    {
      "inputs": [
        {
          "internalType": "address",
          "name": "owner",
          "type": "address"
        },
        {
          "internalType": "address",
          "name": "spender",
          "type": "address"
        }
      ],
      "name": "allowance",
      "outputs": [
        {
          "internalType": "uint256",
          "name": "",
          "type": "uint256"
        }
      ],
      "stateMutability": "view",
      "type": "function"
    },
    {
      "inputs": [
        {
          "internalType": "address",
          "name": "spender",
          "type": "address"
        },
        {
          "internalType": "uint256",
          "name": "value",
          "type": "uint256"
        }
      ],
      "name": "approve",
      "outputs": [
        {
          "internalType": "bool",
          "name": "",
          "type": "bool"
        }
      ],
      "stateMutability": "nonpayable",
      "type": "function"
    },
    {
      "inputs": [],
      "name": "asset",
      "outputs": [
        {
          "internalType": "address",
          "name": "",
          "type": "address"
        }
      ],
      "stateMutability": "view",
      "type": "function"
    },
    {
      "inputs": [
        {
          "internalType": "address",
          "name": "account",
          "type": "address"
        }
      ],
      "name": "balanceOf",
      "outputs": [
        {
          "internalType": "uint256",
          "name": "",
          "type": "uint256"
        }
      ],
      "stateMutability": "view",
      "type": "function"
    },
    {
      "inputs": [
        {
          "internalType": "address",
          "name": "owner",
          "type": "address"
        },
        {
          "internalType": "uint256",
          "name": "amount",
          "type": "uint256"
        }
      ],
      "name": "burn",
      "outputs": [],
      "stateMutability": "nonpayable",
      "type": "function"
    },
    {
      "inputs": [
        {
          "internalType": "address",
          "name": "strategy",
          "type": "address"
        },
        {
          "internalType": "uint256",
          "name": "amount",
          "type": "uint256"
        }
      ],
      "name": "buyDebt",
      "outputs": [],
      "stateMutability": "nonpayable",
      "type": "function"
    },
    {
      "inputs": [
        {
          "internalType": "uint256",
          "name": "shares",
          "type": "uint256"
        }
      ],
      "name": "convertToAssets",
      "outputs": [
        {
          "internalType": "uint256",
          "name": "",
          "type": "uint256"
        }
      ],
      "stateMutability": "view",
      "type": "function"
    },
    {
      "inputs": [
        {
          "internalType": "uint256",
          "name": "assets",
          "type": "uint256"
        }
      ],
      "name": "convertToShares",
      "outputs": [
        {
          "internalType": "uint256",
          "name": "",
          "type": "uint256"
        }
      ],
      "stateMutability": "view",
      "type": "function"
    },
    {
      "inputs": [],
      "name": "decimals",
      "outputs": [
        {
          "internalType": "uint8",
          "name": "",
          "type": "uint8"
        }
      ],
      "stateMutability": "view",
      "type": "function"
    },
    {
      "inputs": [
        {
          "internalType": "uint256",
          "name": "assets",
          "type": "uint256"
        },
        {
          "internalType": "address",
          "name": "receiver",
          "type": "address"
        }
      ],
      "name": "deposit",
      "outputs": [
        {
          "internalType": "uint256",
          "name": "",
          "type": "uint256"
        }
      ],
      "stateMutability": "nonpayable",
      "type": "function"
    },
    {
      "inputs": [
        {
          "internalType": "address",
          "name": "strategy",
          "type": "address"
        }
      ],
      "name": "forceRevokeStrategy",
      "outputs": [],
      "stateMutability": "nonpayable",
      "type": "function"
    },
    {
      "inputs": [],
      "name": "getDefaultQueue",
      "outputs": [
        {
          "internalType": "address[]",
          "name": "",
          "type": "address[]"
        }
      ],
      "stateMutability": "view",
      "type": "function"
    },
    {
      "inputs": [
        {
          "internalType": "bytes32",
          "name": "role",
          "type": "bytes32"
        }
      ],
      "name": "getRoleAdmin",
      "outputs": [
        {
          "internalType": "bytes32",
          "name": "",
          "type": "bytes32"
        }
      ],
      "stateMutability": "view",
      "type": "function"
    },
    {
      "inputs": [
        {
          "internalType": "bytes32",
          "name": "role",
          "type": "bytes32"
        },
        {
          "internalType": "address",
          "name": "account",
          "type": "address"
        }
      ],
      "name": "grantRole",
      "outputs": [],
      "stateMutability": "nonpayable",
      "type": "function"
    },
    {
      "inputs": [
        {
          "internalType": "bytes32",
          "name": "role",
          "type": "bytes32"
        },
        {
          "internalType": "address",
          "name": "account",
          "type": "address"
        }
      ],
      "name": "hasRole",
      "outputs": [
        {
          "internalType": "bool",
          "name": "",
          "type": "bool"
        }
      ],
      "stateMutability": "view",
      "type": "function"
    },
    {
      "inputs": [
        {
          "internalType": "contract IERC20",
          "name": "_asset",
          "type": "address"
        },
        {
          "internalType": "string",
          "name": "_name",
          "type": "string"
        },
        {
          "internalType": "string",
          "name": "_symbol",
          "type": "string"
        },
        {
          "internalType": "uint256",
          "name": "_profitMaxUnlockTime",
          "type": "uint256"
        },
        {
          "internalType": "address",
          "name": "governance",
          "type": "address"
        }
      ],
      "name": "initialize",
      "outputs": [],
      "stateMutability": "nonpayable",
      "type": "function"
    },
    {
      "inputs": [
        {
          "internalType": "address",
          "name": "receiver",
          "type": "address"
        }
      ],
      "name": "maxDeposit",
      "outputs": [
        {
          "internalType": "uint256",
          "name": "",
          "type": "uint256"
        }
      ],
      "stateMutability": "view",
      "type": "function"
    },
    {
      "inputs": [
        {
          "internalType": "address",
          "name": "user",
          "type": "address"
        }
      ],
      "name": "maxMint",
      "outputs": [
        {
          "internalType": "uint256",
          "name": "",
          "type": "uint256"
        }
      ],
      "stateMutability": "view",
      "type": "function"
    },
    {
      "inputs": [
        {
          "internalType": "address",
          "name": "owner",
          "type": "address"
        }
      ],
      "name": "maxRedeem",
      "outputs": [
        {
          "internalType": "uint256",
          "name": "",
          "type": "uint256"
        }
      ],
      "stateMutability": "view",
      "type": "function"
    },
    {
      "inputs": [
        {
          "internalType": "address",
          "name": "owner",
          "type": "address"
        },
        {
          "internalType": "uint256",
          "name": "maxLoss",
          "type": "uint256"
        },
        {
          "internalType": "address[]",
          "name": "_strategies",
          "type": "address[]"
        }
      ],
      "name": "maxWithdraw",
      "outputs": [
        {
          "internalType": "uint256",
          "name": "",
          "type": "uint256"
        }
      ],
      "stateMutability": "view",
      "type": "function"
    },
    {
      "inputs": [
        {
          "internalType": "address",
          "name": "owner",
          "type": "address"
        }
      ],
      "name": "maxWithdraw",
      "outputs": [
        {
          "internalType": "uint256",
          "name": "",
          "type": "uint256"
        }
      ],
      "stateMutability": "view",
      "type": "function"
    },
    {
      "inputs": [],
      "name": "minimumTotalIdle",
      "outputs": [
        {
          "internalType": "uint256",
          "name": "",
          "type": "uint256"
        }
      ],
      "stateMutability": "view",
      "type": "function"
    },
    {
      "inputs": [
        {
          "internalType": "address",
          "name": "receiver",
          "type": "address"
        },
        {
          "internalType": "uint256",
          "name": "amount",
          "type": "uint256"
        }
      ],
      "name": "mint",
      "outputs": [],
      "stateMutability": "nonpayable",
      "type": "function"
    },
    {
      "inputs": [
        {
          "internalType": "uint256",
          "name": "shares",
          "type": "uint256"
        },
        {
          "internalType": "address",
          "name": "receiver",
          "type": "address"
        }
      ],
      "name": "mint",
      "outputs": [
        {
          "internalType": "uint256",
          "name": "",
          "type": "uint256"
        }
      ],
      "stateMutability": "nonpayable",
      "type": "function"
    },
    {
      "inputs": [],
      "name": "name",
      "outputs": [
        {
          "internalType": "string",
          "name": "",
          "type": "string"
        }
      ],
      "stateMutability": "view",
      "type": "function"
    },
    {
      "inputs": [
        {
          "internalType": "uint256",
          "name": "assets",
          "type": "uint256"
        }
      ],
      "name": "previewDeposit",
      "outputs": [
        {
          "internalType": "uint256",
          "name": "",
          "type": "uint256"
        }
      ],
      "stateMutability": "view",
      "type": "function"
    },
    {
      "inputs": [
        {
          "internalType": "uint256",
          "name": "shares",
          "type": "uint256"
        }
      ],
      "name": "previewMint",
      "outputs": [
        {
          "internalType": "uint256",
          "name": "",
          "type": "uint256"
        }
      ],
      "stateMutability": "view",
      "type": "function"
    },
    {
      "inputs": [
        {
          "internalType": "uint256",
          "name": "shares",
          "type": "uint256"
        }
      ],
      "name": "previewRedeem",
      "outputs": [
        {
          "internalType": "uint256",
          "name": "",
          "type": "uint256"
        }
      ],
      "stateMutability": "view",
      "type": "function"
    },
    {
      "inputs": [
        {
          "internalType": "uint256",
          "name": "assets",
          "type": "uint256"
        }
      ],
      "name": "previewWithdraw",
      "outputs": [
        {
          "internalType": "uint256",
          "name": "",
          "type": "uint256"
        }
      ],
      "stateMutability": "view",
      "type": "function"
    },
    {
      "inputs": [],
      "name": "pricePerShare",
      "outputs": [
        {
          "internalType": "uint256",
          "name": "",
          "type": "uint256"
        }
      ],
      "stateMutability": "view",
      "type": "function"
    },
    {
      "inputs": [],
      "name": "pricePerShareWithFee",
      "outputs": [
        {
          "internalType": "uint256",
          "name": "",
          "type": "uint256"
        }
      ],
      "stateMutability": "view",
      "type": "function"
    },
    {
      "inputs": [
        {
          "internalType": "address",
          "name": "strategy",
          "type": "address"
        }
      ],
      "name": "processReport",
      "outputs": [],
      "stateMutability": "nonpayable",
      "type": "function"
    },
    {
      "inputs": [
        {
          "internalType": "uint256",
          "name": "shares",
          "type": "uint256"
        },
        {
          "internalType": "address",
          "name": "receiver",
          "type": "address"
        },
        {
          "internalType": "address",
          "name": "owner",
          "type": "address"
        }
      ],
      "name": "redeem",
      "outputs": [
        {
          "internalType": "uint256",
          "name": "",
          "type": "uint256"
        }
      ],
      "stateMutability": "nonpayable",
      "type": "function"
    },
    {
      "inputs": [
        {
          "internalType": "bytes32",
          "name": "role",
          "type": "bytes32"
        },
        {
          "internalType": "address",
          "name": "callerConfirmation",
          "type": "address"
        }
      ],
      "name": "renounceRole",
      "outputs": [],
      "stateMutability": "nonpayable",
      "type": "function"
    },
    {
      "inputs": [
        {
          "internalType": "bytes32",
          "name": "role",
          "type": "bytes32"
        },
        {
          "internalType": "address",
          "name": "account",
          "type": "address"
        }
      ],
      "name": "revokeRole",
      "outputs": [],
      "stateMutability": "nonpayable",
      "type": "function"
    },
    {
      "inputs": [
        {
          "internalType": "address",
          "name": "strategy",
          "type": "address"
        }
      ],
      "name": "revokeStrategy",
      "outputs": [],
      "stateMutability": "nonpayable",
      "type": "function"
    },
    {
      "inputs": [
        {
          "internalType": "address",
          "name": "newAccountant",
          "type": "address"
        }
      ],
      "name": "setAccountant",
      "outputs": [],
      "stateMutability": "nonpayable",
      "type": "function"
    },
    {
      "inputs": [
        {
          "internalType": "bool",
          "name": "autoAllocate",
          "type": "bool"
        }
      ],
      "name": "setAutoAllocate",
      "outputs": [],
      "stateMutability": "nonpayable",
      "type": "function"
    },
    {
      "inputs": [
        {
          "internalType": "address[]",
          "name": "newDefaultQueue",
          "type": "address[]"
        }
      ],
      "name": "setDefaultQueue",
      "outputs": [],
      "stateMutability": "nonpayable",
      "type": "function"
    },
    {
      "inputs": [
        {
          "internalType": "uint256",
          "name": "depositLimit",
          "type": "uint256"
        }
      ],
      "name": "setDepositLimit",
      "outputs": [],
      "stateMutability": "nonpayable",
      "type": "function"
    },
    {
      "inputs": [
        {
          "internalType": "uint256",
          "name": "depositLimit",
          "type": "uint256"
        }
      ],
      "name": "setDepositLimitForce",
      "outputs": [],
      "stateMutability": "nonpayable",
      "type": "function"
    },
    {
      "inputs": [
        {
          "internalType": "address",
          "name": "newDepositLimitModule",
          "type": "address"
        }
      ],
      "name": "setDepositLimitModule",
      "outputs": [],
      "stateMutability": "nonpayable",
      "type": "function"
    },
    {
      "inputs": [
        {
          "internalType": "address",
          "name": "newDepositLimitModule",
          "type": "address"
        }
      ],
      "name": "setDepositLimitModuleForce",
      "outputs": [],
      "stateMutability": "nonpayable",
      "type": "function"
    },
    {
      "inputs": [
        {
          "internalType": "address",
          "name": "newFeeRecipient",
          "type": "address"
        }
      ],
      "name": "setFeeRecipient",
      "outputs": [],
      "stateMutability": "nonpayable",
      "type": "function"
    },
    {
      "inputs": [
        {
          "internalType": "uint256",
          "name": "newManagementFee",
          "type": "uint256"
        }
      ],
      "name": "setManagementFee",
      "outputs": [],
      "stateMutability": "nonpayable",
      "type": "function"
    },
    {
      "inputs": [
        {
          "internalType": "uint256",
          "name": "newMinimumTotalIdle",
          "type": "uint256"
        }
      ],
      "name": "setMinimumTotalIdle",
      "outputs": [],
      "stateMutability": "nonpayable",
      "type": "function"
    },
    {
      "inputs": [
        {
          "internalType": "uint256",
          "name": "newProfitMaxUnlockTime",
          "type": "uint256"
        }
      ],
      "name": "setProfitMaxUnlockTime",
      "outputs": [],
      "stateMutability": "nonpayable",
      "type": "function"
    },
    {
      "inputs": [
        {
          "internalType": "bool",
          "name": "useDefaultQueue",
          "type": "bool"
        }
      ],
      "name": "setUseDefaultQueue",
      "outputs": [],
      "stateMutability": "nonpayable",
      "type": "function"
    },
    {
      "inputs": [
        {
          "internalType": "address",
          "name": "newWithdrawLimitModule",
          "type": "address"
        }
      ],
      "name": "setWithdrawLimitModule",
      "outputs": [],
      "stateMutability": "nonpayable",
      "type": "function"
    },
    {
      "inputs": [
        {
          "internalType": "address",
          "name": "owner",
          "type": "address"
        },
        {
          "internalType": "address",
          "name": "spender",
          "type": "address"
        },
        {
          "internalType": "uint256",
          "name": "value",
          "type": "uint256"
        }
      ],
      "name": "spendAllowance",
      "outputs": [],
      "stateMutability": "nonpayable",
      "type": "function"
    },
    {
      "inputs": [
        {
          "internalType": "address",
          "name": "strategy",
          "type": "address"
        }
      ],
      "name": "strategies",
      "outputs": [
        {
          "components": [
            {
              "internalType": "uint256",
              "name": "activation",
              "type": "uint256"
            },
            {
              "internalType": "uint256",
              "name": "lastReport",
              "type": "uint256"
            },
            {
              "internalType": "uint256",
              "name": "currentDebt",
              "type": "uint256"
            },
            {
              "internalType": "uint256",
              "name": "maxDebt",
              "type": "uint256"
            }
          ],
          "internalType": "struct DataTypes.StrategyData",
          "name": "",
          "type": "tuple"
        }
      ],
      "stateMutability": "view",
      "type": "function"
    },
    {
      "inputs": [
        {
          "internalType": "bytes4",
          "name": "interfaceId",
          "type": "bytes4"
        }
      ],
      "name": "supportsInterface",
      "outputs": [
        {
          "internalType": "bool",
          "name": "",
          "type": "bool"
        }
      ],
      "stateMutability": "view",
      "type": "function"
    },
    {
      "inputs": [],
      "name": "symbol",
      "outputs": [
        {
          "internalType": "string",
          "name": "",
          "type": "string"
        }
      ],
      "stateMutability": "view",
      "type": "function"
    },
    {
      "inputs": [],
      "name": "totalAssets",
      "outputs": [
        {
          "internalType": "uint256",
          "name": "",
          "type": "uint256"
        }
      ],
      "stateMutability": "view",
      "type": "function"
    },
    {
      "inputs": [],
      "name": "totalDebt",
      "outputs": [
        {
          "internalType": "uint256",
          "name": "",
          "type": "uint256"
        }
      ],
      "stateMutability": "view",
      "type": "function"
    },
    {
      "inputs": [],
      "name": "totalIdle",
      "outputs": [
        {
          "internalType": "uint256",
          "name": "",
          "type": "uint256"
        }
      ],
      "stateMutability": "view",
      "type": "function"
    },
    {
      "inputs": [],
      "name": "totalSupply",
      "outputs": [
        {
          "internalType": "uint256",
          "name": "",
          "type": "uint256"
        }
      ],
      "stateMutability": "view",
      "type": "function"
    },
    {
      "inputs": [],
      "name": "totalSupplyWithFee",
      "outputs": [
        {
          "internalType": "uint256",
          "name": "",
          "type": "uint256"
        }
      ],
      "stateMutability": "view",
      "type": "function"
    },
    {
      "inputs": [
        {
          "internalType": "address",
          "name": "to",
          "type": "address"
        },
        {
          "internalType": "uint256",
          "name": "value",
          "type": "uint256"
        }
      ],
      "name": "transfer",
      "outputs": [
        {
          "internalType": "bool",
          "name": "",
          "type": "bool"
        }
      ],
      "stateMutability": "nonpayable",
      "type": "function"
    },
    {
      "inputs": [
        {
          "internalType": "address",
          "name": "from",
          "type": "address"
        },
        {
          "internalType": "address",
          "name": "to",
          "type": "address"
        },
        {
          "internalType": "uint256",
          "name": "value",
          "type": "uint256"
        }
      ],
      "name": "transferFrom",
      "outputs": [
        {
          "internalType": "bool",
          "name": "",
          "type": "bool"
        }
      ],
      "stateMutability": "nonpayable",
      "type": "function"
    },
    {
      "inputs": [
        {
          "internalType": "address",
          "name": "strategy",
          "type": "address"
        },
        {
          "internalType": "uint256",
          "name": "targetDebt",
          "type": "uint256"
        },
        {
          "internalType": "uint256",
          "name": "maxLoss",
          "type": "uint256"
        }
      ],
      "name": "updateDebt",
      "outputs": [],
      "stateMutability": "nonpayable",
      "type": "function"
    },
    {
      "inputs": [
        {
          "internalType": "address",
          "name": "strategy",
          "type": "address"
        },
        {
          "internalType": "uint256",
          "name": "newMaxDebt",
          "type": "uint256"
        }
      ],
      "name": "updateMaxDebtForStrategy",
      "outputs": [],
      "stateMutability": "nonpayable",
      "type": "function"
    },
    {
      "inputs": [],
      "name": "vaultData",
      "outputs": [
        {
          "internalType": "address",
          "name": "addressVault",
          "type": "address"
        },
        {
          "internalType": "uint256",
          "name": "totalDebt",
          "type": "uint256"
        },
        {
          "internalType": "uint256",
          "name": "totalIdle",
          "type": "uint256"
        },
        {
          "internalType": "bool",
          "name": "useDefaultQueue",
          "type": "bool"
        },
        {
          "internalType": "bool",
          "name": "autoAllocate",
          "type": "bool"
        },
        {
          "internalType": "uint256",
          "name": "minimumTotalIdle",
          "type": "uint256"
        },
        {
          "internalType": "uint256",
          "name": "depositLimit",
          "type": "uint256"
        },
        {
          "internalType": "uint256",
          "name": "profitMaxUnlockTime",
          "type": "uint256"
        },
        {
          "internalType": "uint256",
          "name": "fullProfitUnlockDate",
          "type": "uint256"
        },
        {
          "internalType": "uint256",
          "name": "profitUnlockingRate",
          "type": "uint256"
        },
        {
          "internalType": "uint256",
          "name": "lastProfitUpdate",
          "type": "uint256"
        },
        {
          "internalType": "address",
          "name": "accountant",
          "type": "address"
        },
        {
          "internalType": "address",
          "name": "depositLimitModule",
          "type": "address"
        },
        {
          "internalType": "address",
          "name": "withdrawLimitModule",
          "type": "address"
        },
        {
          "internalType": "address",
          "name": "feeRecipient",
          "type": "address"
        },
        {
          "internalType": "uint256",
          "name": "managementFee",
          "type": "uint256"
        },
        {
          "internalType": "uint256",
          "name": "lastTimeTakeManagementFee",
          "type": "uint256"
        }
      ],
      "stateMutability": "view",
      "type": "function"
    },
    {
      "inputs": [
        {
          "internalType": "uint256",
          "name": "assets",
          "type": "uint256"
        },
        {
          "internalType": "address",
          "name": "receiver",
          "type": "address"
        },
        {
          "internalType": "address",
          "name": "owner",
          "type": "address"
        }
      ],
      "name": "withdraw",
      "outputs": [
        {
          "internalType": "uint256",
          "name": "",
          "type": "uint256"
        }
      ],
      "stateMutability": "nonpayable",
      "type": "function"
    }
  ],
  "transactionHash": "0xabc845858d8ce5e2142d03fe76c5813192c56c7903900c2b7a3d141e0d6ffc19",
  "args": [],
  "numDeployments": 2,
  "solcInputHash": "46ecef0fc11bca115520f50990009ab4",
  "bytecode": "0x6080806040523461001657613da0908161001c8239f35b600080fdfe60a0604052600436101561001257600080fd5b6000803560e01c806301e1d11414612c4457806301ffc9a714612bed57806306fdde0314612b4c57806307a2d13a14612aea5780630835a3fc14612acc578063095ea7b314612a1b5780630a28a477146129885780630e26f3ec146128f757806316b87ac01461286b57806318160ddd1461285057806323b872dd1461282d578063248a9ca3146127f357806329f3cef51461272d5780632d772168146126b05780632f2ff15d14612665578063313ce5671461260457806336568abe146125bc57806338d52e0f1461257457806339ebf823146124d7578063402d267d146109f3578063405977e7146123e957806340c10f191461231b5780634492e2001461225857806348ea7127146121db5780634bbd71e91461210a5780634cdad506146120aa578063633f228c14611fa157806363d56c9a14611f3057806365cb676514611e0a5780636e54774214611cd35780636e553f6514611c4957806370a0823114611c03578063747b8a1c146113265780638212fd431461126b5780638aedaa6d1461123f57806391d14854146111e657806394bf804d1461114357806395d89b411461106257806399530b0614610fd45780639aa7df9414610fb65780639bbca88414610f455780639dc29fac14610e35578063a217fddf14610e19578063a9059cbb14610de7578063b3d7f6b914610dc8578063b460af9414610d15578063b6cc2d1f14610bf0578063ba08765214610ae4578063bb994d4814610a67578063bdc8144b146109f8578063c63d75b6146109f3578063c6e6f59214610993578063ce96cb7714610922578063cf206a7914610830578063d547741f146107e1578063d905777e14610731578063dd62ed3e146106e7578063dd8aaa4f146106c1578063df69b22a14610658578063e74b981b146105db578063edb45ffd1461056b578063ef8b30f714610544578063f6d7bfa014610422578063f7e47f781461039a578063fc7b9c181461037c5763fe56e232146102f357600080fd5b3461036b57602036600319011261036b5761030c6132ab565b8073a9DDb04e1d0B7a603cB7394C186d1529dc877FF4803b1561037957816044916040519283809263d0293cdf60e01b825284600483015260043560248301525af4801561036e5761035b5750f35b61036490612d56565b61036b5780f35b80fd5b6040513d84823e3d90fd5b50fd5b503461036b578060031936011261036b576020600154604051908152f35b503461036b57602036600319011261036b57806103b5612caf565b6103bd613197565b73a9DDb04e1d0B7a603cB7394C186d1529dc877FF490813b1561041e57604051635a5994d360e11b8152600481018490526001600160a01b03909116602482015260016044820152908290829060649082905af4801561036e5761035b5750f35b5050fd5b503461036b57604036600319011261036b5761043c612caf565b9061044561385b565b3360009081527fba497e86a689750256daf086e2b8feba953def9b723a3f9e563274cc492e774960205260409020547fb5635f8fcf25e4801550a062d4397a74f631be84ea8b1cff4a86e831f5c203dc929060ff16156105255781907365aFcbBB35cb76E21095873783272793d5Fd00B790813b1561041e578290606460405180948193633c4c444160e01b835285600484015260018060a01b0316602483015260243560448301525af4801561036e57610511575b506001600080516020613d2b8339815191525580f35b61051a90612d56565b61036b5780826104fb565b60405163e2517d3f60e01b815233600482015260248101849052604490fd5b503461036b57602036600319011261036b5760206105636004356130f2565b604051908152f35b503461036b57602036600319011261036b57610585613197565b8073a9DDb04e1d0B7a603cB7394C186d1529dc877FF4803b156103795781606491604051928380926306e5b7e760e21b82528460048301526004356024830152600160448301525af4801561036e5761035b5750f35b503461036b57602036600319011261036b57806105f6612caf565b6105fe6132ab565b73a9DDb04e1d0B7a603cB7394C186d1529dc877FF490813b1561041e576040516342320d6160e11b8152600481018490526001600160a01b039091166024820152908290829060449082905af4801561036e5761035b5750f35b503461036b57602036600319011261036b576106726132ab565b8073a9DDb04e1d0B7a603cB7394C186d1529dc877FF4803b15610379578160449160405192838092631a5db58960e21b825284600483015260043560248301525af4801561036e5761035b5750f35b503461036b576106e46106d336612cef565b916106df303314612fac565b613328565b80f35b503461036b57604036600319011261036b57610701612caf565b61071261070c612cc5565b91612f73565b9060018060a01b03166000526020526020604060002054604051908152f35b503461036b576020908160031936011261036b5761074d612caf565b604051634b2ec7c960e01b8152600481018390526001600160a01b0390911660248201528281604481739EE10f63449f2DD3CeE511CcCf67C881F73D3fb65af49182156107d557916107a3575b50604051908152f35b90508181813d83116107ce575b6107ba8183612d9f565b810103126107c957513861079a565b600080fd5b503d6107b0565b604051903d90823e3d90fd5b503461036b57604036600319011261036b5761082c600435610801612cc5565b90808452600080516020613ceb83398151915260205261082760016040862001546132f5565b6136df565b5080f35b503461036b578060031936011261036b5760018060a01b0380915416906001549060025490600554600654600754600854600954600a5491600b549387600c54169560ff89600d5416988a600e54169a600f54169b6010549d6011549f60405160805260805152602060805101526040608051015281811615156060608051015260081c16151560808051015260a0608051015260c0608051015260e06080510152610100608051015261012060805101526101406080510152610160608051015261018060805101526101a060805101526101c060805101526101e060805101526102006080510152610220608051f35b503461036b576020908160031936011261036b5761093e612caf565b6040516333fefd2b60e21b8152600481018390526001600160a01b0390911660248201528281604481739EE10f63449f2DD3CeE511CcCf67C881F73D3fb65af49182156107d557916107a35750604051908152f35b503461036b576020908160031936011261036b576040516313567f2960e01b815260048082018390523560248201528281604481739EE10f63449f2DD3CeE511CcCf67C881F73D3fb65af49182156107d557916107a35750604051908152f35b612d24565b503461036b57602036600319011261036b57610a12613197565b8073a9DDb04e1d0B7a603cB7394C186d1529dc877FF4803b156103795781606491604051928380926306e5b7e760e21b825284600483015260043560248301528460448301525af4801561036e5761035b5750f35b503461036b57602036600319011261036b5780610a82612caf565b610a8a61313b565b73a9DDb04e1d0B7a603cB7394C186d1529dc877FF490813b1561041e578290606460405180948193634dcf1cf760e11b835285600484015260018060a01b031660248301528460448301525af4801561036e5761035b5750f35b503461036b57610af336612e22565b610afe93929361388b565b506040519163b3fc5db960e01b835260006004840152846024840152600060448401526020948584606481739EE10f63449f2DD3CeE511CcCf67C881F73D3fb65af4938415610be55790869392918695610bb1575b50604051610b8391610b6482612d84565b87825260405163ed607eef60e01b8152968795869533600488016130a3565b038173Cd251d1Cb60D5b1Fdc315b3282b66C3A8CdaAaFC5af49182156107d557916107a35750604051908152f35b8481959296503d8311610bde575b610bc98183612d9f565b810103126107c957610b838693519490610b53565b503d610bbf565b6040513d87823e3d90fd5b503461036b57602036600319011261036b57610c0a612caf565b610c1261385b565b3360009081527fa3f49cd9abc069fadad1b5960d4e73636b82c5d06bb74023c9881d605e88b70260205260409020547fb88f06de7a467621d4739d66b596fe556082f25ab13291a5e3412ebfe6a282c79060ff1615610cf7575060408051630ab19c7560e01b8152600481018490526001600160a01b039092166024830152816044817365aFcbBB35cb76E21095873783272793d5Fd00B75af4801561036e57610ccc57506001600080516020613d2b8339815191525580f35b604090813d8311610cf0575b610ce28183612d9f565b8101031261036b57386104fb565b503d610cd8565b6044906040519063e2517d3f60e01b82523360048301526024820152fd5b503461036b57610d2436612e22565b610d309392919361388b565b50604051633413a49160e11b8152600060048201526024810183905260016044820152602094908581606481739EE10f63449f2DD3CeE511CcCf67C881F73D3fb65af4908115610be55790869392918691610d965750604051610b8391610b6482612d84565b84819592503d8311610dc1575b610dad8183612d9f565b810103126107c957610b8386935190610b53565b503d610da3565b503461036b57602036600319011261036b57602061056360043561302b565b503461036b57604036600319011261036b57610e0e610e04612caf565b60243590336133fe565b602060405160018152f35b503461036b578060031936011261036b57602090604051908152f35b503461036b57604036600319011261036b57610e4f612caf565b90602435610e5e303314612fac565b6001600160a01b038316908115610f2c5781600052600080516020613c8b8339815191528060205260406000205494828610610efb5750817fddf252ad1be2c89b69c2b068fc378daa952ba7f163c4a11628f55a4df523b3ef926000959660209386885284520360408620557f52c63247e1f47db19d5ce0460030c497f067ca4cebf71ba98eeadabe20bace02818154039055604051908152a380f35b60405163391434e360e21b81526001600160a01b039190911660048201526024810186905260448101839052606490fd5b604051634b637e8f60e11b815260048101849052602490fd5b503461036b57602036600319011261036b5780610f60612d47565b610f6861324f565b73a9DDb04e1d0B7a603cB7394C186d1529dc877FF490813b1561041e578290604460405180948193639425dfc760e01b8352856004840152151560248301525af4801561036e5761035b5750f35b503461036b578060031936011261036b576020600254604051908152f35b503461036b578060031936011261036b57604051631f387e1d60e21b81526004810182905290602082602481739EE10f63449f2DD3CeE511CcCf67C881F73D3fb65af49081156107d5579061102f575b602090604051908152f35b506020813d60201161105a575b8161104960209383612d9f565b810103126107c95760209051611024565b3d915061103c565b503461036b578060031936011261036b576040519080600080516020613cab833981519152805461109281612e7a565b8086529260209260019280841690811561111457506001146110cf575b6110cb876110bf81890382612d9f565b60405191829182612c66565b0390f35b81529350600080516020613d0b8339815191525b838510611101575050505081016020016110bf826110cb38806110af565b80548686018401529382019381016110e3565b9150508695506110cb969350602092506110bf94915060ff191682840152151560051b820101929338806110af565b503461036b57604036600319011261036b57600435611160612cc5565b61116861385b565b61117061388b565b5061117a81613762565b8083116111b357506111998261119160209461302b565b809333613af0565b6001600080516020613d2b83398151915255604051908152f35b60405163284ff66760e01b81526001600160a01b0392909216600483015260248201929092526044810191909152606490fd5b503461036b57604036600319011261036b576040611202612cc5565b916004358152600080516020613ceb833981519152602052209060018060a01b0316600052602052602060ff604060002054166040519015158152f35b503461036b578060031936011261036b57602061056361125d612ec1565b6112656139cf565b90612e57565b503461036b57602036600319011261036b573360009081527ffaadd6a40a37543b0ddfe1e3f3f266e11072592917e21d6a890803d0d7d6f75b60205260409020547f56df694eb35c748e42e9628d52ed28575d4046c5cb4ba53578a35cacecaaf9f99060ff1615610cf757508073a9DDb04e1d0B7a603cB7394C186d1529dc877FF4803b156103795781604491604051928380926307d4432d60e51b825284600483015260043560248301525af4801561036e5761035b5750f35b503461036b5760a036600319011261036b576001600160a01b0390600435808316900361036b576024356001600160401b0381116119475761136c903690600401612ddb565b6044356001600160401b038111611bff5761138b903690600401612ddb565b928060843516608435036107c957600080516020613d4b83398151915254916001600160401b03831680159081611bef575b6001149081611be5575b159081611bdc575b50611bca5760016001600160401b0319841617600080516020613d4b8339815191525560ff8360401c1615611b9d575b611407613b67565b61140f613b67565b8051906001600160401b038211611b8957819061143a600080516020613c6b83398151915254612e7a565b601f8111611b0a575b50602090601f8311600114611a7f578692611a74575b50508160011b916000199060031b1c191617600080516020613c6b833981519152555b83516001600160401b038111611a60576114a4600080516020613cab83398151915254612e7a565b601f81116119e8575b50602094601f821160011461195e579484958293949592611953575b50508160011b916000199060031b1c191617600080516020613cab833981519152555b6114f4613b67565b6114fc613b67565b611507600435613b96565b901561194b575b7f0773e532dfede91f04b12a73d3d2acd361424f41f76b4fb79f090161e36b4e0091825490600435169160ff60a01b9060a01b16906affffffffffffffffffffff60a81b161717905561155f613b67565b611567613b67565b6001600080516020613d2b83398151915255611581613b67565b81735e84c9B1303d2AD196cc0ce29002dd3524F5AFF4803b15611947578160449160405192838092632397c4e160e21b825284600483015260643560248301525af4801561036e57611933575b505060ff906115de6084356134ec565b506115ea60843561359c565b50600080516020613ccb83398151915280600052600080516020613ceb83398151915280602052816001604060002001918183549355817fbd79b86ffe0ab8e8776151514217cd7cacd52c909f66475c3af44e129f0b00ff938185600080a4817faa5d998d0c4b42510868f0d0e7c0a96373abb1abcf4dacce3cd68c32dfecf1e580600052600160406000200190828254925585600080a4817fbc6b16c313697c03242487da72beb3e512a6f0f23d77bbc347355f0e763f334d80600052600160406000200190828254925585600080a46116c3613940565b6116cb613940565b7fb88f06de7a467621d4739d66b596fe556082f25ab13291a5e3412ebfe6a282c79081600052602052600160406000200190828254925583600080a4817f4087820ac4f3f365dd6666f75a18a95ae63ded871b765505dc50ff63b8b8ad7a80600052600160406000200190828254925583600080a4817fb5635f8fcf25e4801550a062d4397a74f631be84ea8b1cff4a86e831f5c203dc80600052600160406000200190828254925583600080a4817f887f610dcfd5fcb5c1f7698dc3962d3f7c9e3ac366693c640c2cb4541798cce580600052600160406000200190828254925583600080a4817f0e5c3557c557b929246c71f8bdd2b8d41adac718fe1473b2c5260a78b189cd5180600052600160406000200190828254925583600080a4817f56df694eb35c748e42e9628d52ed28575d4046c5cb4ba53578a35cacecaaf9f980600052600160406000200190828254925583600080a4817f8ec1c37cf64b8ee6251b9f56a2381f08fce59092560623126b6f8aa4843227fb80600052600160406000200190828254925583600080a4817fd8ff363222baefa421b7eedd5f7f531b7be1f7001edc7ee4ad694cde369f31ee80600052600160406000200190828254925583600080a47fd40d5b35459acbc45a4f502ed75abb26933ccc9216a51d40c846481a5274c68a806000526001604060002001918383549355600080a460401c16156118d95780f35b68ff000000000000000019600080516020613d4b8339815191525416600080516020613d4b833981519152557fc7f505b2f371ae2175ee4913f4499e1f2633a7b5936321eed1cdaeb6115181d2602060405160018152a180f35b61193c90612d56565b6119475781386115ce565b5080fd5b50601261150e565b0151905038806114c9565b600080516020613cab8339815191528552601f19821695600080516020613d0b83398151915291865b8881106119d0575083600195969798106119b7575b505050811b01600080516020613cab833981519152556114ec565b015160001960f88460031b161c1916905538808061199c565b91926020600181928685015181550194019201611987565b600080516020613cab8339815191528552601f820160051c600080516020613d0b833981519152019060208310611a4a575b601f0160051c600080516020613d0b83398151915201905b818110611a3f57506114ad565b858155600101611a32565b600080516020613d0b8339815191529150611a1a565b634e487b7160e01b84526041600452602484fd5b015190503880611459565b600080516020613c6b8339815191528752600080516020613c4b8339815191529250601f198416875b818110611af25750908460019594939210611ad9575b505050811b01600080516020613c6b8339815191525561147c565b015160001960f88460031b161c19169055388080611abe565b92936020600181928786015181550195019301611aa8565b909150600080516020613c6b8339815191528652601f830160051c600080516020613c4b8339815191520160208410611b74575b908392915b601f820160051c600080516020613c4b833981519152018110611b665750611443565b878155849350600101611b43565b50600080516020613c4b833981519152611b3e565b634e487b7160e01b85526041600452602485fd5b68ffffffffffffffffff1983166801000000000000000117600080516020613d4b833981519152556113ff565b60405163f92ee8a960e01b8152600490fd5b905015386113cf565b303b1591506113c7565b604085901c60ff161591506113bd565b8280fd5b503461036b57602036600319011261036b576020906040906001600160a01b03611c2b612caf565b168152600080516020613c8b83398151915283522054604051908152f35b503461036b57604036600319011261036b57600435611c66612cc5565b611c6e61385b565b611c7661388b565b50611c8081613762565b808311611ca05760208361119984611c97836130f2565b92839133613af0565b604051633c8097d960e11b81526001600160a01b0392909216600483015260248201929092526044810191909152606490fd5b503461036b57604036600319011261036b57611ced612caf565b906024358015158091036107c957611d0361385b565b3360009081527f0517aee78b9180436652dcfb6f20d72f8a241b9231fc7941f9cee74f4b6480d360205260409020547faa5d998d0c4b42510868f0d0e7c0a96373abb1abcf4dacce3cd68c32dfecf1e5939060ff1615611deb5782935073a9DDb04e1d0B7a603cB7394C186d1529dc877FF491823b15611de65760405163ce4c748160e01b8152600481018590526001600160a01b0390921660248301526044820152908290829060649082905af4801561036e57611dd257506001600080516020613d2b8339815191525580f35b611ddb90612d56565b61036b5780386104fb565b505050fd5b60405163e2517d3f60e01b815233600482015260248101859052604490fd5b503461036b57606036600319011261036b57611e24612caf565b90604435906001600160401b038083116119475736602384011215611947578260040135908111611f1a578060051b9360209460405192611e6787830185612d9f565b835260248684019186010194368611611f16579060248794939201905b868210611eff575050611ed1939450604051938492839263233d87e760e01b845287600485015260018060a01b031660248401526024356044840152608060648401526084830190612fee565b0381739EE10f63449f2DD3CeE511CcCf67C881F73D3fb65af49182156107d557916107a35750604051908152f35b848091611f0b84612cdb565b815201910190611e84565b8480fd5b634e487b7160e01b600052604160045260246000fd5b503461036b57602036600319011261036b5780611f4b612d47565b611f536131f3565b73a9DDb04e1d0B7a603cB7394C186d1529dc877FF490813b1561041e57829060446040518094819363de9f508b60e01b8352856004840152151560248301525af4801561036e5761035b5750f35b503461036b57602090602060031936011261036b57600435916001600160401b03808411611bff5736602385011215611bff578360040135908111611bff573660248260051b86010111611bff57611ff761385b565b611fff61324f565b73a9DDb04e1d0B7a603cB7394C186d1529dc877FF490813b156120a657919360405192637d35a6e560e11b845280604485018660048701526040602487015252602460648501920195855b82811061207d578680878181808903818b5af4801561036e5761051157506001600080516020613d2b8339815191525580f35b9091928280600192838060a01b036120948c612cdb565b1681520198019101969291909661204a565b8380fd5b503461036b576020908160031936011261036b57604051630c2424d960e31b815260048082018390523560248201528281604481739EE10f63449f2DD3CeE511CcCf67C881F73D3fb65af49182156107d557916107a35750604051908152f35b503461036b57602036600319011261036b57612124612caf565b3360009081527f4166860bad6fb293cdffa9a9ce4c05d6e5359c7e9205745eae341f3036af237a60205260409020547f0e5c3557c557b929246c71f8bdd2b8d41adac718fe1473b2c5260a78b189cd5192919060ff161561052557819073a9DDb04e1d0B7a603cB7394C186d1529dc877FF490813b1561041e57604051632248a0d360e21b8152600481018490526001600160a01b039091166024820152908290829060449082905af4801561036e5761035b5750f35b503461036b57602036600319011261036b57806121f6612caf565b6121fe61324f565b73a9DDb04e1d0B7a603cB7394C186d1529dc877FF490813b1561041e5760405163d55d582b60e01b8152600481018490526001600160a01b039091166024820152908290829060449082905af4801561036e5761035b5750f35b503461036b57606036600319011261036b57612272612caf565b61227a61385b565b6122826131f3565b60405190638dd618f560e01b825282600483015260018060a01b03166024820152602435604482015260443560648201526020816084817365aFcbBB35cb76E21095873783272793d5Fd00B75af4801561036e576122f057506001600080516020613d2b8339815191525580f35b602090813d8311612314575b6123068183612d9f565b810103126107c957386104fb565b503d6122fc565b503461036b57604036600319011261036b57612335612caf565b60243590612344303314612fac565b6001600160a01b03169081156123d0577fddf252ad1be2c89b69c2b068fc378daa952ba7f163c4a11628f55a4df523b3ef60206000927f52c63247e1f47db19d5ce0460030c497f067ca4cebf71ba98eeadabe20bace026123a6828254612e57565b9055848452600080516020613c8b833981519152825260408420818154019055604051908152a380f35b60405163ec442f0560e01b815260048101849052602490fd5b503461036b57604036600319011261036b57612403612caf565b9061240c61385b565b3360009081527ff495fdbfca8d2976096e9633d5792e8da7dcb1810952a4535dbeac0d0254195860205260409020547fd8ff363222baefa421b7eedd5f7f531b7be1f7001edc7ee4ad694cde369f31ee929060ff16156105255781907365aFcbBB35cb76E21095873783272793d5Fd00B790813b1561041e578290606460405180948193632dd9caaf60e11b835285600484015260018060a01b0316602483015260243560448301525af4801561036e5761051157506001600080516020613d2b8339815191525580f35b503461036b57602036600319011261036b5760406080916124f6612caf565b816060845161250481612d69565b8281528260208201528286820152015260018060a01b0316815260036020522060405161253081612d69565b815491828252600181015460208301908152606060036002840154936040860194855201549301928352604051938452516020840152516040830152516060820152f35b503461036b578060031936011261036b577f0773e532dfede91f04b12a73d3d2acd361424f41f76b4fb79f090161e36b4e00546040516001600160a01b039091168152602090f35b503461036b57604036600319011261036b576125d6612cc5565b336001600160a01b038216036125f25761082c906004356136df565b60405163334bd91960e11b8152600490fd5b503461036b578060031936011261036b5760ff7f0773e532dfede91f04b12a73d3d2acd361424f41f76b4fb79f090161e36b4e005460a01c169060ff821161265157602082604051908152f35b634e487b7160e01b81526011600452602490fd5b503461036b57604036600319011261036b5761082c600435612685612cc5565b90808452600080516020613ceb8339815191526020526126ab60016040862001546132f5565b613658565b503461036b57602036600319011261036b57806126cb612caf565b6126d3613197565b73a9DDb04e1d0B7a603cB7394C186d1529dc877FF490813b1561041e578290606460405180948193635a5994d360e11b835285600484015260018060a01b031660248301528460448301525af4801561036e5761035b5750f35b503461036b578060031936011261036b5760405180916004549081835260208093018092600483527f8a35acfbc15ff81a39ae7d344fd709f28e8600b4aa8c65c6b64bfe7fe36bd19b90835b8181106127d6575050508461278f910385612d9f565b60405193838594850191818652518092526040850193925b8281106127b657505050500390f35b83516001600160a01b0316855286955093810193928101926001016127a7565b82546001600160a01b031684529286019260019283019201612779565b503461036b57602036600319011261036b57600160406020926004358152600080516020613ceb8339815191528452200154604051908152f35b503461036b57610e0e61283f36612cef565b9161284b833383613328565b6133fe565b503461036b578060031936011261036b576020610563612ec1565b503461036b57602036600319011261036b57612885612caf565b61288d61313b565b8173a9DDb04e1d0B7a603cB7394C186d1529dc877FF491823b1561194757604051634dcf1cf760e11b8152600481018390526001600160a01b0390911660248201526001604482015291829060649082905af4801561036e576128ee575080f35b6106e490612d56565b503461036b578060031936011261036b576040516310e005b160e01b815260048101829052602081602481739EE10f63449f2DD3CeE511CcCf67C881F73D3fb65af490811561036e578291612952575b602082604051908152f35b90506020813d602011612980575b8161296d60209383612d9f565b8101031261194757602091505138612947565b3d9150612960565b503461036b576020908160031936011261036b576040516361af063360e11b815260048082018390523560248201528281604481739EE10f63449f2DD3CeE511CcCf67C881F73D3fb65af49182156107d55780926129eb575b5050604051908152f35b9091508282813d8311612a14575b612a038183612d9f565b8101031261036b57505138806129e1565b503d6129f9565b503461036b57604036600319011261036b57612a35612caf565b602435903315612ab3576001600160a01b0316918215612a9b5760408291612a5c33612f73565b85825260205220556040519081527f8c5be1e5ebec7d5bd14f71427d1e84f3dd0314c0f7b2291e5b200ac8c7c3b92560203392a3602060405160018152f35b60249060405190634a1406b160e11b82526004820152fd5b60405163e602df0560e01b815260048101849052602490fd5b503461036b578060031936011261036b576020600654604051908152f35b503461036b576020908160031936011261036b576040516310968a0560e01b815260048082018390523560248201528281604481739EE10f63449f2DD3CeE511CcCf67C881F73D3fb65af49182156107d55780926129eb575050604051908152f35b503461036b578060031936011261036b576040519080600080516020613c6b8339815191528054612b7c81612e7a565b808652926020926001928084169081156111145750600114612ba8576110cb876110bf81890382612d9f565b81529350600080516020613c4b8339815191525b838510612bda575050505081016020016110bf826110cb38806110af565b8054868601840152938201938101612bbc565b503461036b57602036600319011261036b5760043563ffffffff60e01b811680910361194757602090637965db0b60e01b8114908115612c33575b506040519015158152f35b6301ffc9a760e01b14905082612c28565b503461036b578060031936011261036b57602061056360025460015490612e57565b6020808252825181830181905290939260005b828110612c9b57505060409293506000838284010152601f8019910116010190565b818101860151848201604001528501612c79565b600435906001600160a01b03821682036107c957565b602435906001600160a01b03821682036107c957565b35906001600160a01b03821682036107c957565b60609060031901126107c9576001600160a01b039060043582811681036107c9579160243590811681036107c9579060443590565b346107c95760203660031901126107c9576020610563612d42612caf565b613762565b6004359081151582036107c957565b6001600160401b038111611f1a57604052565b608081019081106001600160401b03821117611f1a57604052565b602081019081106001600160401b03821117611f1a57604052565b90601f801991011681019081106001600160401b03821117611f1a57604052565b6001600160401b038111611f1a57601f01601f191660200190565b81601f820112156107c957803590612df282612dc0565b92612e006040519485612d9f565b828452602083830101116107c957816000926020809301838601378301015290565b60609060031901126107c957600435906001600160a01b039060243582811681036107c9579160443590811681036107c95790565b91908201809211612e6457565b634e487b7160e01b600052601160045260246000fd5b90600182811c92168015612eaa575b6020831014612e9457565b634e487b7160e01b600052602260045260246000fd5b91607f1691612e89565b91908203918211612e6457565b7f52c63247e1f47db19d5ce0460030c497f067ca4cebf71ba98eeadabe20bace0254604051639a17075960e01b8152600060048201529060208260248173185807a05a5A0eF5c31516cdA68422B98f6147E85af4908115612f6757600091612f31575b612f2e9250612eb4565b90565b90506020823d602011612f5f575b81612f4c60209383612d9f565b810103126107c957612f2e915190612f24565b3d9150612f3f565b6040513d6000823e3d90fd5b6001600160a01b031660009081527f52c63247e1f47db19d5ce0460030c497f067ca4cebf71ba98eeadabe20bace016020526040902090565b15612fb357565b60405162461bcd60e51b815260206004820152601360248201527213db9b1e481d985d5b1d0818d85b881b5a5b9d606a1b6044820152606490fd5b90815180825260208080930193019160005b82811061300e575050505090565b83516001600160a01b031685529381019392810192600101613000565b60405190630d25bbb560e01b8252600060048301526024820152602081604481739EE10f63449f2DD3CeE511CcCf67C881F73D3fb65af4908115612f6757600091613074575090565b90506020813d60201161309b575b8161308f60209383612d9f565b810103126107c9575190565b3d9150613082565b60008082526001600160a01b039283166020830152928216604082015292166060830152608082019290925260a081019290925260c082015261010060e08201819052612f2e92910190612fee565b6040519063665c96db60e11b8252600060048301526024820152602081604481739EE10f63449f2DD3CeE511CcCf67C881F73D3fb65af4908115612f6757600091613074575090565b3360009081527f10d70e3a3777c025b5e9ce76933ad9e855317d269f27e1a4bc94e9698e3f665860205260409020547fbc6b16c313697c03242487da72beb3e512a6f0f23d77bbc347355f0e763f334d9060ff1615610cf75750565b3360009081527f6c0c2d1d14bc83a2216e58daf9a0cd7e298111de4a5b7b16aa980076b0f85ff960205260409020547f887f610dcfd5fcb5c1f7698dc3962d3f7c9e3ac366693c640c2cb4541798cce59060ff1615610cf75750565b3360009081527fadcc9e5138e1babd8d9829f890e27ec44d4e252c58e34ce3fa129c741d13373460205260409020547f4087820ac4f3f365dd6666f75a18a95ae63ded871b765505dc50ff63b8b8ad7a9060ff1615610cf75750565b3360009081527f9a4cd071f2ff548e185a4af9a22df0932b4f41be60048045cf84c207ed3d583860205260409020547f6ba016d3b65b86283908b0fb3b490838033bbcf01b3aebc405616e0c981d00739060ff1615610cf75750565b3360009081527f4a9c097c866513af3cc7dc827c0f6d0047b0afe5503d41e27ed9ad22b37874cd6020526040902054600080516020613ccb8339815191529060ff1615610cf75750565b80600052600080516020613ceb83398151915260205260406000203360005260205260ff6040600020541615610cf75750565b919061333383612f73565b9260018060a01b0390818316916000958387526020526040862054936000198510613362575b50505050505050565b8585106133cd57508116156133b457811561339b57906133856040949392612f73565b9085526020520391205538808080808080613359565b604051634a1406b160e11b815260048101869052602490fd5b60405163e602df0560e01b815260048101869052602490fd5b604051637dc7a0d960e11b81526001600160a01b039190911660048201526024810185905260448101869052606490fd5b916001600160a01b038084169283156134d357169283156134ba57600090838252600080516020613c8b83398151915280602052604083205491848310613487575082847fddf252ad1be2c89b69c2b068fc378daa952ba7f163c4a11628f55a4df523b3ef959360409388602097528652038282205586815220818154019055604051908152a3565b60405163391434e360e21b81526001600160a01b0391909116600482015260248101929092525060448101839052606490fd5b60405163ec442f0560e01b815260006004820152602490fd5b604051634b637e8f60e11b815260006004820152602490fd5b6001600160a01b031660008181527f4a9c097c866513af3cc7dc827c0f6d0047b0afe5503d41e27ed9ad22b37874cd6020526040812054909190600080516020613ccb83398151915290600080516020613ceb8339815191529060ff16613596578184526020526040832082845260205260408320600160ff198254161790557f2f8788117e7eff1d82e926ec794901d17c78024a50270940304540a733656f0d339380a4600190565b50505090565b6001600160a01b031660008181527f0517aee78b9180436652dcfb6f20d72f8a241b9231fc7941f9cee74f4b6480d360205260408120549091907faa5d998d0c4b42510868f0d0e7c0a96373abb1abcf4dacce3cd68c32dfecf1e590600080516020613ceb8339815191529060ff16613596578184526020526040832082845260205260408320600160ff198254161790557f2f8788117e7eff1d82e926ec794901d17c78024a50270940304540a733656f0d339380a4600190565b90600091808352600080516020613ceb83398151915280602052604084209260018060a01b03169283855260205260ff60408520541615600014613596578184526020526040832082845260205260408320600160ff198254161790557f2f8788117e7eff1d82e926ec794901d17c78024a50270940304540a733656f0d339380a4600190565b90600091808352600080516020613ceb83398151915280602052604084209260018060a01b03169283855260205260ff60408520541660001461359657818452602052604083208284526020526040832060ff1981541690557ff6391f5c32d9c69d2a47ea670b442974b53935d1edc7fd64eb21e047a839171b339380a4600190565b6001600160a01b0390811680158015613852575b61384b5781600d5416908161381a5750506007546000198114613815576004906020600093845416604051938480926278744560e21b82525afa91821561380a5783926137d6575b50808210156137d157612f2e9250612eb4565b505090565b9091506020813d602011613802575b816137f260209383612d9f565b81010312611bff575190386137be565b3d91506137e5565b6040513d85823e3d90fd5b905090565b6020919250602460405180948193632355178960e11b835260048301525afa908115612f6757600091613074575090565b5050600090565b50308114613776565b600080516020613d2b83398151915260028154146138795760029055565b604051633ee5aeb560e01b8152600490fd5b6138936139cf565b600f549091906001600160a01b0390811680151580613937575b6138e7575b5042601155600f54167f9b667543ac195d809e34c85813d76b4738f9e454b9334d6db8d7f035702e47a26020604051858152a2565b6000908282541690813b15611bff5782916044839260405195869384926340c10f1960e01b845260048401528a60248401525af19081156107d55750156138b25761393190612d56565b386138b2565b508315156138ad565b7f6ba016d3b65b86283908b0fb3b490838033bbcf01b3aebc405616e0c981d007380600052600080516020613ceb833981519152602052600160406000200190815490600080516020613ccb8339815191528093557fbd79b86ffe0ab8e8776151514217cd7cacd52c909f66475c3af44e129f0b00ff600080a4565b81810292918115918404141715612e6457565b600f546001600160a01b0390811615613aea57600080546040516318160ddd60e01b81529260209291168284600481845afa93841561036e578294613abb575b509082602492604051938480926370a0823160e01b82528060048301525afa928315613aae578193613a74575b505050613a67613a55613a709264496cebb80094612eb4565b613a6160115442612eb4565b906139bc565b601054906139bc565b0490565b9091809350813d8311613aa7575b613a8c8183612d9f565b8101031261036b575051613a67613a5564496cebb800613a3c565b503d613a82565b50604051903d90823e3d90fd5b9093508281813d8311613ae3575b613ad38183612d9f565b8101031261194757519282613a0f565b503d613ac9565b50600090565b90919273c909a83daAD0bd4cB47AB718f494A86F3d2c66B492833b156107c95760009360a492604051968795869463084a7e7960e31b865288600487015260018060a01b038092166024870152166044850152606484015260848301525af48015612f6757613b5c5750565b613b6590612d56565b565b60ff600080516020613d4b8339815191525460401c1615613b8457565b604051631afcd79f60e31b8152600490fd5b90604051602081019063313ce56760e01b825260048152604081018181106001600160401b03821117611f1a576040525160009384928392916001600160a01b03165afa3d15613c42573d90613beb82612dc0565b91613bf96040519384612d9f565b82523d84602084013e5b80613c36575b613c13575b508190565b602081805181010312611bff576020015160ff8111613c0e576001925060ff1690565b50602081511015613c09565b606090613c0356fe2ae08a8e29253f69ac5d979a101956ab8f8d9d7ded63fa7a83b16fc47648eab052c63247e1f47db19d5ce0460030c497f067ca4cebf71ba98eeadabe20bace0352c63247e1f47db19d5ce0460030c497f067ca4cebf71ba98eeadabe20bace0052c63247e1f47db19d5ce0460030c497f067ca4cebf71ba98eeadabe20bace049bd4dbbde3e8c2a4c422fc593b5df31e3960da9ec402b66c87a010d0623ab46c02dd7bc7dec4dceedda775e58dd541e08a116c6c53815c0bd028192f7b62680046a2803e59a4de4e7a4c574b1243f25977ac4c77d5a1a4a609b5394cebb4a2aa9b779b17422d0df92223018b32b4d1fa46e071723d6817e2486d003becc55f00f0c57e16840df040f15088dc2f81fe391c3923bec73e23a9662efc9c229c6a00a2646970667358221220244d9740100ce671cedabd1a6220df120160ed46109dba33e38b0f15f4e68c4564736f6c63430008180033",
  "deployedBytecode": "0x60a0604052600436101561001257600080fd5b6000803560e01c806301e1d11414612c4457806301ffc9a714612bed57806306fdde0314612b4c57806307a2d13a14612aea5780630835a3fc14612acc578063095ea7b314612a1b5780630a28a477146129885780630e26f3ec146128f757806316b87ac01461286b57806318160ddd1461285057806323b872dd1461282d578063248a9ca3146127f357806329f3cef51461272d5780632d772168146126b05780632f2ff15d14612665578063313ce5671461260457806336568abe146125bc57806338d52e0f1461257457806339ebf823146124d7578063402d267d146109f3578063405977e7146123e957806340c10f191461231b5780634492e2001461225857806348ea7127146121db5780634bbd71e91461210a5780634cdad506146120aa578063633f228c14611fa157806363d56c9a14611f3057806365cb676514611e0a5780636e54774214611cd35780636e553f6514611c4957806370a0823114611c03578063747b8a1c146113265780638212fd431461126b5780638aedaa6d1461123f57806391d14854146111e657806394bf804d1461114357806395d89b411461106257806399530b0614610fd45780639aa7df9414610fb65780639bbca88414610f455780639dc29fac14610e35578063a217fddf14610e19578063a9059cbb14610de7578063b3d7f6b914610dc8578063b460af9414610d15578063b6cc2d1f14610bf0578063ba08765214610ae4578063bb994d4814610a67578063bdc8144b146109f8578063c63d75b6146109f3578063c6e6f59214610993578063ce96cb7714610922578063cf206a7914610830578063d547741f146107e1578063d905777e14610731578063dd62ed3e146106e7578063dd8aaa4f146106c1578063df69b22a14610658578063e74b981b146105db578063edb45ffd1461056b578063ef8b30f714610544578063f6d7bfa014610422578063f7e47f781461039a578063fc7b9c181461037c5763fe56e232146102f357600080fd5b3461036b57602036600319011261036b5761030c6132ab565b8073__$3ddc574512022f331a6a4c7e4bbb5c67b6$__803b1561037957816044916040519283809263d0293cdf60e01b825284600483015260043560248301525af4801561036e5761035b5750f35b61036490612d56565b61036b5780f35b80fd5b6040513d84823e3d90fd5b50fd5b503461036b578060031936011261036b576020600154604051908152f35b503461036b57602036600319011261036b57806103b5612caf565b6103bd613197565b73__$3ddc574512022f331a6a4c7e4bbb5c67b6$__90813b1561041e57604051635a5994d360e11b8152600481018490526001600160a01b03909116602482015260016044820152908290829060649082905af4801561036e5761035b5750f35b5050fd5b503461036b57604036600319011261036b5761043c612caf565b9061044561385b565b3360009081527fba497e86a689750256daf086e2b8feba953def9b723a3f9e563274cc492e774960205260409020547fb5635f8fcf25e4801550a062d4397a74f631be84ea8b1cff4a86e831f5c203dc929060ff161561052557819073__$792584d84f72d9431342ae3d286007221a$__90813b1561041e578290606460405180948193633c4c444160e01b835285600484015260018060a01b0316602483015260243560448301525af4801561036e57610511575b506001600080516020613d2b8339815191525580f35b61051a90612d56565b61036b5780826104fb565b60405163e2517d3f60e01b815233600482015260248101849052604490fd5b503461036b57602036600319011261036b5760206105636004356130f2565b604051908152f35b503461036b57602036600319011261036b57610585613197565b8073__$3ddc574512022f331a6a4c7e4bbb5c67b6$__803b156103795781606491604051928380926306e5b7e760e21b82528460048301526004356024830152600160448301525af4801561036e5761035b5750f35b503461036b57602036600319011261036b57806105f6612caf565b6105fe6132ab565b73__$3ddc574512022f331a6a4c7e4bbb5c67b6$__90813b1561041e576040516342320d6160e11b8152600481018490526001600160a01b039091166024820152908290829060449082905af4801561036e5761035b5750f35b503461036b57602036600319011261036b576106726132ab565b8073__$3ddc574512022f331a6a4c7e4bbb5c67b6$__803b15610379578160449160405192838092631a5db58960e21b825284600483015260043560248301525af4801561036e5761035b5750f35b503461036b576106e46106d336612cef565b916106df303314612fac565b613328565b80f35b503461036b57604036600319011261036b57610701612caf565b61071261070c612cc5565b91612f73565b9060018060a01b03166000526020526020604060002054604051908152f35b503461036b576020908160031936011261036b5761074d612caf565b604051634b2ec7c960e01b8152600481018390526001600160a01b039091166024820152828160448173__$1814f5c45fb4ddda68bfc681da060a464a$__5af49182156107d557916107a3575b50604051908152f35b90508181813d83116107ce575b6107ba8183612d9f565b810103126107c957513861079a565b600080fd5b503d6107b0565b604051903d90823e3d90fd5b503461036b57604036600319011261036b5761082c600435610801612cc5565b90808452600080516020613ceb83398151915260205261082760016040862001546132f5565b6136df565b5080f35b503461036b578060031936011261036b5760018060a01b0380915416906001549060025490600554600654600754600854600954600a5491600b549387600c54169560ff89600d5416988a600e54169a600f54169b6010549d6011549f60405160805260805152602060805101526040608051015281811615156060608051015260081c16151560808051015260a0608051015260c0608051015260e06080510152610100608051015261012060805101526101406080510152610160608051015261018060805101526101a060805101526101c060805101526101e060805101526102006080510152610220608051f35b503461036b576020908160031936011261036b5761093e612caf565b6040516333fefd2b60e21b8152600481018390526001600160a01b039091166024820152828160448173__$1814f5c45fb4ddda68bfc681da060a464a$__5af49182156107d557916107a35750604051908152f35b503461036b576020908160031936011261036b576040516313567f2960e01b81526004808201839052356024820152828160448173__$1814f5c45fb4ddda68bfc681da060a464a$__5af49182156107d557916107a35750604051908152f35b612d24565b503461036b57602036600319011261036b57610a12613197565b8073__$3ddc574512022f331a6a4c7e4bbb5c67b6$__803b156103795781606491604051928380926306e5b7e760e21b825284600483015260043560248301528460448301525af4801561036e5761035b5750f35b503461036b57602036600319011261036b5780610a82612caf565b610a8a61313b565b73__$3ddc574512022f331a6a4c7e4bbb5c67b6$__90813b1561041e578290606460405180948193634dcf1cf760e11b835285600484015260018060a01b031660248301528460448301525af4801561036e5761035b5750f35b503461036b57610af336612e22565b610afe93929361388b565b506040519163b3fc5db960e01b83526000600484015284602484015260006044840152602094858460648173__$1814f5c45fb4ddda68bfc681da060a464a$__5af4938415610be55790869392918695610bb1575b50604051610b8391610b6482612d84565b87825260405163ed607eef60e01b8152968795869533600488016130a3565b038173__$4f0348743f984310a2d0be11a6745499c5$__5af49182156107d557916107a35750604051908152f35b8481959296503d8311610bde575b610bc98183612d9f565b810103126107c957610b838693519490610b53565b503d610bbf565b6040513d87823e3d90fd5b503461036b57602036600319011261036b57610c0a612caf565b610c1261385b565b3360009081527fa3f49cd9abc069fadad1b5960d4e73636b82c5d06bb74023c9881d605e88b70260205260409020547fb88f06de7a467621d4739d66b596fe556082f25ab13291a5e3412ebfe6a282c79060ff1615610cf7575060408051630ab19c7560e01b8152600481018490526001600160a01b0390921660248301528160448173__$792584d84f72d9431342ae3d286007221a$__5af4801561036e57610ccc57506001600080516020613d2b8339815191525580f35b604090813d8311610cf0575b610ce28183612d9f565b8101031261036b57386104fb565b503d610cd8565b6044906040519063e2517d3f60e01b82523360048301526024820152fd5b503461036b57610d2436612e22565b610d309392919361388b565b50604051633413a49160e11b815260006004820152602481018390526001604482015260209490858160648173__$1814f5c45fb4ddda68bfc681da060a464a$__5af4908115610be55790869392918691610d965750604051610b8391610b6482612d84565b84819592503d8311610dc1575b610dad8183612d9f565b810103126107c957610b8386935190610b53565b503d610da3565b503461036b57602036600319011261036b57602061056360043561302b565b503461036b57604036600319011261036b57610e0e610e04612caf565b60243590336133fe565b602060405160018152f35b503461036b578060031936011261036b57602090604051908152f35b503461036b57604036600319011261036b57610e4f612caf565b90602435610e5e303314612fac565b6001600160a01b038316908115610f2c5781600052600080516020613c8b8339815191528060205260406000205494828610610efb5750817fddf252ad1be2c89b69c2b068fc378daa952ba7f163c4a11628f55a4df523b3ef926000959660209386885284520360408620557f52c63247e1f47db19d5ce0460030c497f067ca4cebf71ba98eeadabe20bace02818154039055604051908152a380f35b60405163391434e360e21b81526001600160a01b039190911660048201526024810186905260448101839052606490fd5b604051634b637e8f60e11b815260048101849052602490fd5b503461036b57602036600319011261036b5780610f60612d47565b610f6861324f565b73__$3ddc574512022f331a6a4c7e4bbb5c67b6$__90813b1561041e578290604460405180948193639425dfc760e01b8352856004840152151560248301525af4801561036e5761035b5750f35b503461036b578060031936011261036b576020600254604051908152f35b503461036b578060031936011261036b57604051631f387e1d60e21b8152600481018290529060208260248173__$1814f5c45fb4ddda68bfc681da060a464a$__5af49081156107d5579061102f575b602090604051908152f35b506020813d60201161105a575b8161104960209383612d9f565b810103126107c95760209051611024565b3d915061103c565b503461036b578060031936011261036b576040519080600080516020613cab833981519152805461109281612e7a565b8086529260209260019280841690811561111457506001146110cf575b6110cb876110bf81890382612d9f565b60405191829182612c66565b0390f35b81529350600080516020613d0b8339815191525b838510611101575050505081016020016110bf826110cb38806110af565b80548686018401529382019381016110e3565b9150508695506110cb969350602092506110bf94915060ff191682840152151560051b820101929338806110af565b503461036b57604036600319011261036b57600435611160612cc5565b61116861385b565b61117061388b565b5061117a81613762565b8083116111b357506111998261119160209461302b565b809333613af0565b6001600080516020613d2b83398151915255604051908152f35b60405163284ff66760e01b81526001600160a01b0392909216600483015260248201929092526044810191909152606490fd5b503461036b57604036600319011261036b576040611202612cc5565b916004358152600080516020613ceb833981519152602052209060018060a01b0316600052602052602060ff604060002054166040519015158152f35b503461036b578060031936011261036b57602061056361125d612ec1565b6112656139cf565b90612e57565b503461036b57602036600319011261036b573360009081527ffaadd6a40a37543b0ddfe1e3f3f266e11072592917e21d6a890803d0d7d6f75b60205260409020547f56df694eb35c748e42e9628d52ed28575d4046c5cb4ba53578a35cacecaaf9f99060ff1615610cf757508073__$3ddc574512022f331a6a4c7e4bbb5c67b6$__803b156103795781604491604051928380926307d4432d60e51b825284600483015260043560248301525af4801561036e5761035b5750f35b503461036b5760a036600319011261036b576001600160a01b0390600435808316900361036b576024356001600160401b0381116119475761136c903690600401612ddb565b6044356001600160401b038111611bff5761138b903690600401612ddb565b928060843516608435036107c957600080516020613d4b83398151915254916001600160401b03831680159081611bef575b6001149081611be5575b159081611bdc575b50611bca5760016001600160401b0319841617600080516020613d4b8339815191525560ff8360401c1615611b9d575b611407613b67565b61140f613b67565b8051906001600160401b038211611b8957819061143a600080516020613c6b83398151915254612e7a565b601f8111611b0a575b50602090601f8311600114611a7f578692611a74575b50508160011b916000199060031b1c191617600080516020613c6b833981519152555b83516001600160401b038111611a60576114a4600080516020613cab83398151915254612e7a565b601f81116119e8575b50602094601f821160011461195e579484958293949592611953575b50508160011b916000199060031b1c191617600080516020613cab833981519152555b6114f4613b67565b6114fc613b67565b611507600435613b96565b901561194b575b7f0773e532dfede91f04b12a73d3d2acd361424f41f76b4fb79f090161e36b4e0091825490600435169160ff60a01b9060a01b16906affffffffffffffffffffff60a81b161717905561155f613b67565b611567613b67565b6001600080516020613d2b83398151915255611581613b67565b8173__$54d6f0ceb598a52c8007b3cf331120a868$__803b15611947578160449160405192838092632397c4e160e21b825284600483015260643560248301525af4801561036e57611933575b505060ff906115de6084356134ec565b506115ea60843561359c565b50600080516020613ccb83398151915280600052600080516020613ceb83398151915280602052816001604060002001918183549355817fbd79b86ffe0ab8e8776151514217cd7cacd52c909f66475c3af44e129f0b00ff938185600080a4817faa5d998d0c4b42510868f0d0e7c0a96373abb1abcf4dacce3cd68c32dfecf1e580600052600160406000200190828254925585600080a4817fbc6b16c313697c03242487da72beb3e512a6f0f23d77bbc347355f0e763f334d80600052600160406000200190828254925585600080a46116c3613940565b6116cb613940565b7fb88f06de7a467621d4739d66b596fe556082f25ab13291a5e3412ebfe6a282c79081600052602052600160406000200190828254925583600080a4817f4087820ac4f3f365dd6666f75a18a95ae63ded871b765505dc50ff63b8b8ad7a80600052600160406000200190828254925583600080a4817fb5635f8fcf25e4801550a062d4397a74f631be84ea8b1cff4a86e831f5c203dc80600052600160406000200190828254925583600080a4817f887f610dcfd5fcb5c1f7698dc3962d3f7c9e3ac366693c640c2cb4541798cce580600052600160406000200190828254925583600080a4817f0e5c3557c557b929246c71f8bdd2b8d41adac718fe1473b2c5260a78b189cd5180600052600160406000200190828254925583600080a4817f56df694eb35c748e42e9628d52ed28575d4046c5cb4ba53578a35cacecaaf9f980600052600160406000200190828254925583600080a4817f8ec1c37cf64b8ee6251b9f56a2381f08fce59092560623126b6f8aa4843227fb80600052600160406000200190828254925583600080a4817fd8ff363222baefa421b7eedd5f7f531b7be1f7001edc7ee4ad694cde369f31ee80600052600160406000200190828254925583600080a47fd40d5b35459acbc45a4f502ed75abb26933ccc9216a51d40c846481a5274c68a806000526001604060002001918383549355600080a460401c16156118d95780f35b68ff000000000000000019600080516020613d4b8339815191525416600080516020613d4b833981519152557fc7f505b2f371ae2175ee4913f4499e1f2633a7b5936321eed1cdaeb6115181d2602060405160018152a180f35b61193c90612d56565b6119475781386115ce565b5080fd5b50601261150e565b0151905038806114c9565b600080516020613cab8339815191528552601f19821695600080516020613d0b83398151915291865b8881106119d0575083600195969798106119b7575b505050811b01600080516020613cab833981519152556114ec565b015160001960f88460031b161c1916905538808061199c565b91926020600181928685015181550194019201611987565b600080516020613cab8339815191528552601f820160051c600080516020613d0b833981519152019060208310611a4a575b601f0160051c600080516020613d0b83398151915201905b818110611a3f57506114ad565b858155600101611a32565b600080516020613d0b8339815191529150611a1a565b634e487b7160e01b84526041600452602484fd5b015190503880611459565b600080516020613c6b8339815191528752600080516020613c4b8339815191529250601f198416875b818110611af25750908460019594939210611ad9575b505050811b01600080516020613c6b8339815191525561147c565b015160001960f88460031b161c19169055388080611abe565b92936020600181928786015181550195019301611aa8565b909150600080516020613c6b8339815191528652601f830160051c600080516020613c4b8339815191520160208410611b74575b908392915b601f820160051c600080516020613c4b833981519152018110611b665750611443565b878155849350600101611b43565b50600080516020613c4b833981519152611b3e565b634e487b7160e01b85526041600452602485fd5b68ffffffffffffffffff1983166801000000000000000117600080516020613d4b833981519152556113ff565b60405163f92ee8a960e01b8152600490fd5b905015386113cf565b303b1591506113c7565b604085901c60ff161591506113bd565b8280fd5b503461036b57602036600319011261036b576020906040906001600160a01b03611c2b612caf565b168152600080516020613c8b83398151915283522054604051908152f35b503461036b57604036600319011261036b57600435611c66612cc5565b611c6e61385b565b611c7661388b565b50611c8081613762565b808311611ca05760208361119984611c97836130f2565b92839133613af0565b604051633c8097d960e11b81526001600160a01b0392909216600483015260248201929092526044810191909152606490fd5b503461036b57604036600319011261036b57611ced612caf565b906024358015158091036107c957611d0361385b565b3360009081527f0517aee78b9180436652dcfb6f20d72f8a241b9231fc7941f9cee74f4b6480d360205260409020547faa5d998d0c4b42510868f0d0e7c0a96373abb1abcf4dacce3cd68c32dfecf1e5939060ff1615611deb5782935073__$3ddc574512022f331a6a4c7e4bbb5c67b6$__91823b15611de65760405163ce4c748160e01b8152600481018590526001600160a01b0390921660248301526044820152908290829060649082905af4801561036e57611dd257506001600080516020613d2b8339815191525580f35b611ddb90612d56565b61036b5780386104fb565b505050fd5b60405163e2517d3f60e01b815233600482015260248101859052604490fd5b503461036b57606036600319011261036b57611e24612caf565b90604435906001600160401b038083116119475736602384011215611947578260040135908111611f1a578060051b9360209460405192611e6787830185612d9f565b835260248684019186010194368611611f16579060248794939201905b868210611eff575050611ed1939450604051938492839263233d87e760e01b845287600485015260018060a01b031660248401526024356044840152608060648401526084830190612fee565b038173__$1814f5c45fb4ddda68bfc681da060a464a$__5af49182156107d557916107a35750604051908152f35b848091611f0b84612cdb565b815201910190611e84565b8480fd5b634e487b7160e01b600052604160045260246000fd5b503461036b57602036600319011261036b5780611f4b612d47565b611f536131f3565b73__$3ddc574512022f331a6a4c7e4bbb5c67b6$__90813b1561041e57829060446040518094819363de9f508b60e01b8352856004840152151560248301525af4801561036e5761035b5750f35b503461036b57602090602060031936011261036b57600435916001600160401b03808411611bff5736602385011215611bff578360040135908111611bff573660248260051b86010111611bff57611ff761385b565b611fff61324f565b73__$3ddc574512022f331a6a4c7e4bbb5c67b6$__90813b156120a657919360405192637d35a6e560e11b845280604485018660048701526040602487015252602460648501920195855b82811061207d578680878181808903818b5af4801561036e5761051157506001600080516020613d2b8339815191525580f35b9091928280600192838060a01b036120948c612cdb565b1681520198019101969291909661204a565b8380fd5b503461036b576020908160031936011261036b57604051630c2424d960e31b81526004808201839052356024820152828160448173__$1814f5c45fb4ddda68bfc681da060a464a$__5af49182156107d557916107a35750604051908152f35b503461036b57602036600319011261036b57612124612caf565b3360009081527f4166860bad6fb293cdffa9a9ce4c05d6e5359c7e9205745eae341f3036af237a60205260409020547f0e5c3557c557b929246c71f8bdd2b8d41adac718fe1473b2c5260a78b189cd5192919060ff161561052557819073__$3ddc574512022f331a6a4c7e4bbb5c67b6$__90813b1561041e57604051632248a0d360e21b8152600481018490526001600160a01b039091166024820152908290829060449082905af4801561036e5761035b5750f35b503461036b57602036600319011261036b57806121f6612caf565b6121fe61324f565b73__$3ddc574512022f331a6a4c7e4bbb5c67b6$__90813b1561041e5760405163d55d582b60e01b8152600481018490526001600160a01b039091166024820152908290829060449082905af4801561036e5761035b5750f35b503461036b57606036600319011261036b57612272612caf565b61227a61385b565b6122826131f3565b60405190638dd618f560e01b825282600483015260018060a01b031660248201526024356044820152604435606482015260208160848173__$792584d84f72d9431342ae3d286007221a$__5af4801561036e576122f057506001600080516020613d2b8339815191525580f35b602090813d8311612314575b6123068183612d9f565b810103126107c957386104fb565b503d6122fc565b503461036b57604036600319011261036b57612335612caf565b60243590612344303314612fac565b6001600160a01b03169081156123d0577fddf252ad1be2c89b69c2b068fc378daa952ba7f163c4a11628f55a4df523b3ef60206000927f52c63247e1f47db19d5ce0460030c497f067ca4cebf71ba98eeadabe20bace026123a6828254612e57565b9055848452600080516020613c8b833981519152825260408420818154019055604051908152a380f35b60405163ec442f0560e01b815260048101849052602490fd5b503461036b57604036600319011261036b57612403612caf565b9061240c61385b565b3360009081527ff495fdbfca8d2976096e9633d5792e8da7dcb1810952a4535dbeac0d0254195860205260409020547fd8ff363222baefa421b7eedd5f7f531b7be1f7001edc7ee4ad694cde369f31ee929060ff161561052557819073__$792584d84f72d9431342ae3d286007221a$__90813b1561041e578290606460405180948193632dd9caaf60e11b835285600484015260018060a01b0316602483015260243560448301525af4801561036e5761051157506001600080516020613d2b8339815191525580f35b503461036b57602036600319011261036b5760406080916124f6612caf565b816060845161250481612d69565b8281528260208201528286820152015260018060a01b0316815260036020522060405161253081612d69565b815491828252600181015460208301908152606060036002840154936040860194855201549301928352604051938452516020840152516040830152516060820152f35b503461036b578060031936011261036b577f0773e532dfede91f04b12a73d3d2acd361424f41f76b4fb79f090161e36b4e00546040516001600160a01b039091168152602090f35b503461036b57604036600319011261036b576125d6612cc5565b336001600160a01b038216036125f25761082c906004356136df565b60405163334bd91960e11b8152600490fd5b503461036b578060031936011261036b5760ff7f0773e532dfede91f04b12a73d3d2acd361424f41f76b4fb79f090161e36b4e005460a01c169060ff821161265157602082604051908152f35b634e487b7160e01b81526011600452602490fd5b503461036b57604036600319011261036b5761082c600435612685612cc5565b90808452600080516020613ceb8339815191526020526126ab60016040862001546132f5565b613658565b503461036b57602036600319011261036b57806126cb612caf565b6126d3613197565b73__$3ddc574512022f331a6a4c7e4bbb5c67b6$__90813b1561041e578290606460405180948193635a5994d360e11b835285600484015260018060a01b031660248301528460448301525af4801561036e5761035b5750f35b503461036b578060031936011261036b5760405180916004549081835260208093018092600483527f8a35acfbc15ff81a39ae7d344fd709f28e8600b4aa8c65c6b64bfe7fe36bd19b90835b8181106127d6575050508461278f910385612d9f565b60405193838594850191818652518092526040850193925b8281106127b657505050500390f35b83516001600160a01b0316855286955093810193928101926001016127a7565b82546001600160a01b031684529286019260019283019201612779565b503461036b57602036600319011261036b57600160406020926004358152600080516020613ceb8339815191528452200154604051908152f35b503461036b57610e0e61283f36612cef565b9161284b833383613328565b6133fe565b503461036b578060031936011261036b576020610563612ec1565b503461036b57602036600319011261036b57612885612caf565b61288d61313b565b8173__$3ddc574512022f331a6a4c7e4bbb5c67b6$__91823b1561194757604051634dcf1cf760e11b8152600481018390526001600160a01b0390911660248201526001604482015291829060649082905af4801561036e576128ee575080f35b6106e490612d56565b503461036b578060031936011261036b576040516310e005b160e01b81526004810182905260208160248173__$1814f5c45fb4ddda68bfc681da060a464a$__5af490811561036e578291612952575b602082604051908152f35b90506020813d602011612980575b8161296d60209383612d9f565b8101031261194757602091505138612947565b3d9150612960565b503461036b576020908160031936011261036b576040516361af063360e11b81526004808201839052356024820152828160448173__$1814f5c45fb4ddda68bfc681da060a464a$__5af49182156107d55780926129eb575b5050604051908152f35b9091508282813d8311612a14575b612a038183612d9f565b8101031261036b57505138806129e1565b503d6129f9565b503461036b57604036600319011261036b57612a35612caf565b602435903315612ab3576001600160a01b0316918215612a9b5760408291612a5c33612f73565b85825260205220556040519081527f8c5be1e5ebec7d5bd14f71427d1e84f3dd0314c0f7b2291e5b200ac8c7c3b92560203392a3602060405160018152f35b60249060405190634a1406b160e11b82526004820152fd5b60405163e602df0560e01b815260048101849052602490fd5b503461036b578060031936011261036b576020600654604051908152f35b503461036b576020908160031936011261036b576040516310968a0560e01b81526004808201839052356024820152828160448173__$1814f5c45fb4ddda68bfc681da060a464a$__5af49182156107d55780926129eb575050604051908152f35b503461036b578060031936011261036b576040519080600080516020613c6b8339815191528054612b7c81612e7a565b808652926020926001928084169081156111145750600114612ba8576110cb876110bf81890382612d9f565b81529350600080516020613c4b8339815191525b838510612bda575050505081016020016110bf826110cb38806110af565b8054868601840152938201938101612bbc565b503461036b57602036600319011261036b5760043563ffffffff60e01b811680910361194757602090637965db0b60e01b8114908115612c33575b506040519015158152f35b6301ffc9a760e01b14905082612c28565b503461036b578060031936011261036b57602061056360025460015490612e57565b6020808252825181830181905290939260005b828110612c9b57505060409293506000838284010152601f8019910116010190565b818101860151848201604001528501612c79565b600435906001600160a01b03821682036107c957565b602435906001600160a01b03821682036107c957565b35906001600160a01b03821682036107c957565b60609060031901126107c9576001600160a01b039060043582811681036107c9579160243590811681036107c9579060443590565b346107c95760203660031901126107c9576020610563612d42612caf565b613762565b6004359081151582036107c957565b6001600160401b038111611f1a57604052565b608081019081106001600160401b03821117611f1a57604052565b602081019081106001600160401b03821117611f1a57604052565b90601f801991011681019081106001600160401b03821117611f1a57604052565b6001600160401b038111611f1a57601f01601f191660200190565b81601f820112156107c957803590612df282612dc0565b92612e006040519485612d9f565b828452602083830101116107c957816000926020809301838601378301015290565b60609060031901126107c957600435906001600160a01b039060243582811681036107c9579160443590811681036107c95790565b91908201809211612e6457565b634e487b7160e01b600052601160045260246000fd5b90600182811c92168015612eaa575b6020831014612e9457565b634e487b7160e01b600052602260045260246000fd5b91607f1691612e89565b91908203918211612e6457565b7f52c63247e1f47db19d5ce0460030c497f067ca4cebf71ba98eeadabe20bace0254604051639a17075960e01b8152600060048201529060208260248173__$d8260e8b02a4a6ab3ae2f76431c00289f4$__5af4908115612f6757600091612f31575b612f2e9250612eb4565b90565b90506020823d602011612f5f575b81612f4c60209383612d9f565b810103126107c957612f2e915190612f24565b3d9150612f3f565b6040513d6000823e3d90fd5b6001600160a01b031660009081527f52c63247e1f47db19d5ce0460030c497f067ca4cebf71ba98eeadabe20bace016020526040902090565b15612fb357565b60405162461bcd60e51b815260206004820152601360248201527213db9b1e481d985d5b1d0818d85b881b5a5b9d606a1b6044820152606490fd5b90815180825260208080930193019160005b82811061300e575050505090565b83516001600160a01b031685529381019392810192600101613000565b60405190630d25bbb560e01b825260006004830152602482015260208160448173__$1814f5c45fb4ddda68bfc681da060a464a$__5af4908115612f6757600091613074575090565b90506020813d60201161309b575b8161308f60209383612d9f565b810103126107c9575190565b3d9150613082565b60008082526001600160a01b039283166020830152928216604082015292166060830152608082019290925260a081019290925260c082015261010060e08201819052612f2e92910190612fee565b6040519063665c96db60e11b825260006004830152602482015260208160448173__$1814f5c45fb4ddda68bfc681da060a464a$__5af4908115612f6757600091613074575090565b3360009081527f10d70e3a3777c025b5e9ce76933ad9e855317d269f27e1a4bc94e9698e3f665860205260409020547fbc6b16c313697c03242487da72beb3e512a6f0f23d77bbc347355f0e763f334d9060ff1615610cf75750565b3360009081527f6c0c2d1d14bc83a2216e58daf9a0cd7e298111de4a5b7b16aa980076b0f85ff960205260409020547f887f610dcfd5fcb5c1f7698dc3962d3f7c9e3ac366693c640c2cb4541798cce59060ff1615610cf75750565b3360009081527fadcc9e5138e1babd8d9829f890e27ec44d4e252c58e34ce3fa129c741d13373460205260409020547f4087820ac4f3f365dd6666f75a18a95ae63ded871b765505dc50ff63b8b8ad7a9060ff1615610cf75750565b3360009081527f9a4cd071f2ff548e185a4af9a22df0932b4f41be60048045cf84c207ed3d583860205260409020547f6ba016d3b65b86283908b0fb3b490838033bbcf01b3aebc405616e0c981d00739060ff1615610cf75750565b3360009081527f4a9c097c866513af3cc7dc827c0f6d0047b0afe5503d41e27ed9ad22b37874cd6020526040902054600080516020613ccb8339815191529060ff1615610cf75750565b80600052600080516020613ceb83398151915260205260406000203360005260205260ff6040600020541615610cf75750565b919061333383612f73565b9260018060a01b0390818316916000958387526020526040862054936000198510613362575b50505050505050565b8585106133cd57508116156133b457811561339b57906133856040949392612f73565b9085526020520391205538808080808080613359565b604051634a1406b160e11b815260048101869052602490fd5b60405163e602df0560e01b815260048101869052602490fd5b604051637dc7a0d960e11b81526001600160a01b039190911660048201526024810185905260448101869052606490fd5b916001600160a01b038084169283156134d357169283156134ba57600090838252600080516020613c8b83398151915280602052604083205491848310613487575082847fddf252ad1be2c89b69c2b068fc378daa952ba7f163c4a11628f55a4df523b3ef959360409388602097528652038282205586815220818154019055604051908152a3565b60405163391434e360e21b81526001600160a01b0391909116600482015260248101929092525060448101839052606490fd5b60405163ec442f0560e01b815260006004820152602490fd5b604051634b637e8f60e11b815260006004820152602490fd5b6001600160a01b031660008181527f4a9c097c866513af3cc7dc827c0f6d0047b0afe5503d41e27ed9ad22b37874cd6020526040812054909190600080516020613ccb83398151915290600080516020613ceb8339815191529060ff16613596578184526020526040832082845260205260408320600160ff198254161790557f2f8788117e7eff1d82e926ec794901d17c78024a50270940304540a733656f0d339380a4600190565b50505090565b6001600160a01b031660008181527f0517aee78b9180436652dcfb6f20d72f8a241b9231fc7941f9cee74f4b6480d360205260408120549091907faa5d998d0c4b42510868f0d0e7c0a96373abb1abcf4dacce3cd68c32dfecf1e590600080516020613ceb8339815191529060ff16613596578184526020526040832082845260205260408320600160ff198254161790557f2f8788117e7eff1d82e926ec794901d17c78024a50270940304540a733656f0d339380a4600190565b90600091808352600080516020613ceb83398151915280602052604084209260018060a01b03169283855260205260ff60408520541615600014613596578184526020526040832082845260205260408320600160ff198254161790557f2f8788117e7eff1d82e926ec794901d17c78024a50270940304540a733656f0d339380a4600190565b90600091808352600080516020613ceb83398151915280602052604084209260018060a01b03169283855260205260ff60408520541660001461359657818452602052604083208284526020526040832060ff1981541690557ff6391f5c32d9c69d2a47ea670b442974b53935d1edc7fd64eb21e047a839171b339380a4600190565b6001600160a01b0390811680158015613852575b61384b5781600d5416908161381a5750506007546000198114613815576004906020600093845416604051938480926278744560e21b82525afa91821561380a5783926137d6575b50808210156137d157612f2e9250612eb4565b505090565b9091506020813d602011613802575b816137f260209383612d9f565b81010312611bff575190386137be565b3d91506137e5565b6040513d85823e3d90fd5b905090565b6020919250602460405180948193632355178960e11b835260048301525afa908115612f6757600091613074575090565b5050600090565b50308114613776565b600080516020613d2b83398151915260028154146138795760029055565b604051633ee5aeb560e01b8152600490fd5b6138936139cf565b600f549091906001600160a01b0390811680151580613937575b6138e7575b5042601155600f54167f9b667543ac195d809e34c85813d76b4738f9e454b9334d6db8d7f035702e47a26020604051858152a2565b6000908282541690813b15611bff5782916044839260405195869384926340c10f1960e01b845260048401528a60248401525af19081156107d55750156138b25761393190612d56565b386138b2565b508315156138ad565b7f6ba016d3b65b86283908b0fb3b490838033bbcf01b3aebc405616e0c981d007380600052600080516020613ceb833981519152602052600160406000200190815490600080516020613ccb8339815191528093557fbd79b86ffe0ab8e8776151514217cd7cacd52c909f66475c3af44e129f0b00ff600080a4565b81810292918115918404141715612e6457565b600f546001600160a01b0390811615613aea57600080546040516318160ddd60e01b81529260209291168284600481845afa93841561036e578294613abb575b509082602492604051938480926370a0823160e01b82528060048301525afa928315613aae578193613a74575b505050613a67613a55613a709264496cebb80094612eb4565b613a6160115442612eb4565b906139bc565b601054906139bc565b0490565b9091809350813d8311613aa7575b613a8c8183612d9f565b8101031261036b575051613a67613a5564496cebb800613a3c565b503d613a82565b50604051903d90823e3d90fd5b9093508281813d8311613ae3575b613ad38183612d9f565b8101031261194757519282613a0f565b503d613ac9565b50600090565b90919273__$209f7610f7b09602dd9c7c2ef5b135794a$__92833b156107c95760009360a492604051968795869463084a7e7960e31b865288600487015260018060a01b038092166024870152166044850152606484015260848301525af48015612f6757613b5c5750565b613b6590612d56565b565b60ff600080516020613d4b8339815191525460401c1615613b8457565b604051631afcd79f60e31b8152600490fd5b90604051602081019063313ce56760e01b825260048152604081018181106001600160401b03821117611f1a576040525160009384928392916001600160a01b03165afa3d15613c42573d90613beb82612dc0565b91613bf96040519384612d9f565b82523d84602084013e5b80613c36575b613c13575b508190565b602081805181010312611bff576020015160ff8111613c0e576001925060ff1690565b50602081511015613c09565b606090613c0356fe2ae08a8e29253f69ac5d979a101956ab8f8d9d7ded63fa7a83b16fc47648eab052c63247e1f47db19d5ce0460030c497f067ca4cebf71ba98eeadabe20bace0352c63247e1f47db19d5ce0460030c497f067ca4cebf71ba98eeadabe20bace0052c63247e1f47db19d5ce0460030c497f067ca4cebf71ba98eeadabe20bace049bd4dbbde3e8c2a4c422fc593b5df31e3960da9ec402b66c87a010d0623ab46c02dd7bc7dec4dceedda775e58dd541e08a116c6c53815c0bd028192f7b62680046a2803e59a4de4e7a4c574b1243f25977ac4c77d5a1a4a609b5394cebb4a2aa9b779b17422d0df92223018b32b4d1fa46e071723d6817e2486d003becc55f00f0c57e16840df040f15088dc2f81fe391c3923bec73e23a9662efc9c229c6a00a2646970667358221220244d9740100ce671cedabd1a6220df120160ed46109dba33e38b0f15f4e68c4564736f6c63430008180033",
  "libraries": {
    "ERC20Logic": "0x5628db49dEEbdb1bCE3402F567ea5D2c40C83415",
    "ERC4626Logic": "0x9EE10f63449f2DD3CeE511CcCf67C881F73D3fb6",
    "InitializeLogic": "0x5e84c9B1303d2AD196cc0ce29002dd3524F5AFF4",
    "DepositLogic": "0xc909a83daAD0bd4cB47AB718f494A86F3d2c66B4",
    "WithdrawLogic": "0xCd251d1Cb60D5b1Fdc315b3282b66C3A8CdaAaFC",
    "UnlockSharesLogic": "0x185807a05a5A0eF5c31516cdA68422B98f6147E8",
    "DebtLogic": "0x65aFcbBB35cb76E21095873783272793d5Fd00B7",
    "ConfiguratorLogic": "0xa9DDb04e1d0B7a603cB7394C186d1529dc877FF4"
  },
  "devdoc": {
    "errors": {
      "AccessControlBadConfirmation()": [
        {
          "details": "The caller of a function is not the expected one. NOTE: Don't confuse with {AccessControlUnauthorizedAccount}."
        }
      ],
      "AccessControlUnauthorizedAccount(address,bytes32)": [
        {
          "details": "The `account` is missing a role."
        }
      ],
      "ERC20InsufficientAllowance(address,uint256,uint256)": [
        {
          "details": "Indicates a failure with the `spender`s `allowance`. Used in transfers.",
          "params": {
            "allowance": "Amount of tokens a `spender` is allowed to operate with.",
            "needed": "Minimum amount required to perform a transfer.",
            "spender": "Address that may be allowed to operate on tokens without being their owner."
          }
        }
      ],
      "ERC20InsufficientBalance(address,uint256,uint256)": [
        {
          "details": "Indicates an error related to the current `balance` of a `sender`. Used in transfers.",
          "params": {
            "balance": "Current balance for the interacting account.",
            "needed": "Minimum amount required to perform a transfer.",
            "sender": "Address whose tokens are being transferred."
          }
        }
      ],
      "ERC20InvalidApprover(address)": [
        {
          "details": "Indicates a failure with the `approver` of a token to be approved. Used in approvals.",
          "params": {
            "approver": "Address initiating an approval operation."
          }
        }
      ],
      "ERC20InvalidReceiver(address)": [
        {
          "details": "Indicates a failure with the token `receiver`. Used in transfers.",
          "params": {
            "receiver": "Address to which tokens are being transferred."
          }
        }
      ],
      "ERC20InvalidSender(address)": [
        {
          "details": "Indicates a failure with the token `sender`. Used in transfers.",
          "params": {
            "sender": "Address whose tokens are being transferred."
          }
        }
      ],
      "ERC20InvalidSpender(address)": [
        {
          "details": "Indicates a failure with the `spender` to be approved. Used in approvals.",
          "params": {
            "spender": "Address that may be allowed to operate on tokens without being their owner."
          }
        }
      ],
      "ERC4626ExceededMaxDeposit(address,uint256,uint256)": [
        {
          "details": "Attempted to deposit more assets than the max amount for `receiver`."
        }
      ],
      "ERC4626ExceededMaxMint(address,uint256,uint256)": [
        {
          "details": "Attempted to mint more shares than the max amount for `receiver`."
        }
      ],
      "ERC4626ExceededMaxRedeem(address,uint256,uint256)": [
        {
          "details": "Attempted to redeem more shares than the max amount for `receiver`."
        }
      ],
      "ERC4626ExceededMaxWithdraw(address,uint256,uint256)": [
        {
          "details": "Attempted to withdraw more assets than the max amount for `receiver`."
        }
      ],
      "InvalidInitialization()": [
        {
          "details": "The contract is already initialized."
        }
      ],
      "NotInitializing()": [
        {
          "details": "The contract is not initializing."
        }
      ],
      "ReentrancyGuardReentrantCall()": [
        {
          "details": "Unauthorized reentrant call."
        }
      ]
    },
    "events": {
      "Approval(address,address,uint256)": {
        "details": "Emitted when the allowance of a `spender` for an `owner` is set by a call to {approve}. `value` is the new allowance."
      },
      "Initialized(uint64)": {
        "details": "Triggered when the contract has been initialized or reinitialized."
      },
      "RoleAdminChanged(bytes32,bytes32,bytes32)": {
        "details": "Emitted when `newAdminRole` is set as ``role``'s admin role, replacing `previousAdminRole` `DEFAULT_ADMIN_ROLE` is the starting admin for all roles, despite {RoleAdminChanged} not being emitted to signal this."
      },
      "RoleGranted(bytes32,address,address)": {
        "details": "Emitted when `account` is granted `role`. `sender` is the account that originated the contract call. This account bears the admin role (for the granted role). Expected in cases where the role was granted using the internal {AccessControl-_grantRole}."
      },
      "RoleRevoked(bytes32,address,address)": {
        "details": "Emitted when `account` is revoked `role`. `sender` is the account that originated the contract call:   - if using `revokeRole`, it is the admin role bearer   - if using `renounceRole`, it is the role bearer (i.e. `account`)"
      },
      "Transfer(address,address,uint256)": {
        "details": "Emitted when `value` tokens are moved from one account (`from`) to another (`to`). Note that `value` may be zero."
      }
    },
    "kind": "dev",
    "methods": {
      "allowance(address,address)": {
        "details": "See {IERC20-allowance}."
      },
      "approve(address,uint256)": {
        "details": "See {IERC20-approve}. NOTE: If `value` is the maximum `uint256`, the allowance is not updated on `transferFrom`. This is semantically equivalent to an infinite approval. Requirements: - `spender` cannot be the zero address."
      },
      "balanceOf(address)": {
        "details": "See {IERC20-balanceOf}."
      },
      "getRoleAdmin(bytes32)": {
        "details": "Returns the admin role that controls `role`. See {grantRole} and {revokeRole}. To change a role's admin, use {_setRoleAdmin}."
      },
      "grantRole(bytes32,address)": {
        "details": "Grants `role` to `account`. If `account` had not been already granted `role`, emits a {RoleGranted} event. Requirements: - the caller must have ``role``'s admin role. May emit a {RoleGranted} event."
      },
      "hasRole(bytes32,address)": {
        "details": "Returns `true` if `account` has been granted `role`."
      },
      "name()": {
        "details": "Returns the name of the token."
      },
      "renounceRole(bytes32,address)": {
        "details": "Revokes `role` from the calling account. Roles are often managed via {grantRole} and {revokeRole}: this function's purpose is to provide a mechanism for accounts to lose their privileges if they are compromised (such as when a trusted device is misplaced). If the calling account had been revoked `role`, emits a {RoleRevoked} event. Requirements: - the caller must be `callerConfirmation`. May emit a {RoleRevoked} event."
      },
      "revokeRole(bytes32,address)": {
        "details": "Revokes `role` from `account`. If `account` had been granted `role`, emits a {RoleRevoked} event. Requirements: - the caller must have ``role``'s admin role. May emit a {RoleRevoked} event."
      },
      "supportsInterface(bytes4)": {
        "details": "See {IERC165-supportsInterface}."
      },
      "symbol()": {
        "details": "Returns the symbol of the token, usually a shorter version of the name."
      },
      "transfer(address,uint256)": {
        "details": "See {IERC20-transfer}. Requirements: - `to` cannot be the zero address. - the caller must have a balance of at least `value`."
      },
      "transferFrom(address,address,uint256)": {
        "details": "See {IERC20-transferFrom}. Skips emitting an {Approval} event indicating an allowance update. This is not required by the ERC. See {xref-ERC20-_approve-address-address-uint256-bool-}[_approve]. NOTE: Does not update the allowance if the current allowance is the maximum `uint256`. Requirements: - `from` and `to` cannot be the zero address. - `from` must have a balance of at least `value`. - the caller must have allowance for ``from``'s tokens of at least `value`."
      }
    },
    "version": 1
  },
  "userdoc": {
    "kind": "user",
    "methods": {},
    "version": 1
  },
  "storageLayout": {
    "storage": [
      {
        "astId": 8214,
        "contract": "contracts/protocol/Vault.sol:Vault",
        "label": "vaultData",
        "offset": 0,
        "slot": "0",
        "type": "t_struct(VaultData)12647_storage"
      }
    ],
    "types": {
      "t_address": {
        "encoding": "inplace",
        "label": "address",
        "numberOfBytes": "20"
      },
      "t_array(t_address)dyn_storage": {
        "base": "t_address",
        "encoding": "dynamic_array",
        "label": "address[]",
        "numberOfBytes": "32"
      },
      "t_bool": {
        "encoding": "inplace",
        "label": "bool",
        "numberOfBytes": "1"
      },
      "t_mapping(t_address,t_struct(StrategyData)12604_storage)": {
        "encoding": "mapping",
        "key": "t_address",
        "label": "mapping(address => struct DataTypes.StrategyData)",
        "numberOfBytes": "32",
        "value": "t_struct(StrategyData)12604_storage"
      },
      "t_struct(StrategyData)12604_storage": {
        "encoding": "inplace",
        "label": "struct DataTypes.StrategyData",
        "members": [
          {
            "astId": 12597,
            "contract": "contracts/protocol/Vault.sol:Vault",
            "label": "activation",
            "offset": 0,
            "slot": "0",
            "type": "t_uint256"
          },
          {
            "astId": 12599,
            "contract": "contracts/protocol/Vault.sol:Vault",
            "label": "lastReport",
            "offset": 0,
            "slot": "1",
            "type": "t_uint256"
          },
          {
            "astId": 12601,
            "contract": "contracts/protocol/Vault.sol:Vault",
            "label": "currentDebt",
            "offset": 0,
            "slot": "2",
            "type": "t_uint256"
          },
          {
            "astId": 12603,
            "contract": "contracts/protocol/Vault.sol:Vault",
            "label": "maxDebt",
            "offset": 0,
            "slot": "3",
            "type": "t_uint256"
          }
        ],
        "numberOfBytes": "128"
      },
      "t_struct(VaultData)12647_storage": {
        "encoding": "inplace",
        "label": "struct DataTypes.VaultData",
        "members": [
          {
            "astId": 12606,
            "contract": "contracts/protocol/Vault.sol:Vault",
            "label": "addressVault",
            "offset": 0,
            "slot": "0",
            "type": "t_address"
          },
          {
            "astId": 12608,
            "contract": "contracts/protocol/Vault.sol:Vault",
            "label": "totalDebt",
            "offset": 0,
            "slot": "1",
            "type": "t_uint256"
          },
          {
            "astId": 12610,
            "contract": "contracts/protocol/Vault.sol:Vault",
            "label": "totalIdle",
            "offset": 0,
            "slot": "2",
            "type": "t_uint256"
          },
          {
            "astId": 12615,
            "contract": "contracts/protocol/Vault.sol:Vault",
            "label": "strategies",
            "offset": 0,
            "slot": "3",
            "type": "t_mapping(t_address,t_struct(StrategyData)12604_storage)"
          },
          {
            "astId": 12618,
            "contract": "contracts/protocol/Vault.sol:Vault",
            "label": "defaultQueue",
            "offset": 0,
            "slot": "4",
            "type": "t_array(t_address)dyn_storage"
          },
          {
            "astId": 12620,
            "contract": "contracts/protocol/Vault.sol:Vault",
            "label": "useDefaultQueue",
            "offset": 0,
            "slot": "5",
            "type": "t_bool"
          },
          {
            "astId": 12622,
            "contract": "contracts/protocol/Vault.sol:Vault",
            "label": "autoAllocate",
            "offset": 1,
            "slot": "5",
            "type": "t_bool"
          },
          {
            "astId": 12624,
            "contract": "contracts/protocol/Vault.sol:Vault",
            "label": "minimumTotalIdle",
            "offset": 0,
            "slot": "6",
            "type": "t_uint256"
          },
          {
            "astId": 12626,
            "contract": "contracts/protocol/Vault.sol:Vault",
            "label": "depositLimit",
            "offset": 0,
            "slot": "7",
            "type": "t_uint256"
          },
          {
            "astId": 12628,
            "contract": "contracts/protocol/Vault.sol:Vault",
            "label": "profitMaxUnlockTime",
            "offset": 0,
            "slot": "8",
            "type": "t_uint256"
          },
          {
            "astId": 12630,
            "contract": "contracts/protocol/Vault.sol:Vault",
            "label": "fullProfitUnlockDate",
            "offset": 0,
            "slot": "9",
            "type": "t_uint256"
          },
          {
            "astId": 12632,
            "contract": "contracts/protocol/Vault.sol:Vault",
            "label": "profitUnlockingRate",
            "offset": 0,
            "slot": "10",
            "type": "t_uint256"
          },
          {
            "astId": 12634,
            "contract": "contracts/protocol/Vault.sol:Vault",
            "label": "lastProfitUpdate",
            "offset": 0,
            "slot": "11",
            "type": "t_uint256"
          },
          {
            "astId": 12636,
            "contract": "contracts/protocol/Vault.sol:Vault",
            "label": "accountant",
            "offset": 0,
            "slot": "12",
            "type": "t_address"
          },
          {
            "astId": 12638,
            "contract": "contracts/protocol/Vault.sol:Vault",
            "label": "depositLimitModule",
            "offset": 0,
            "slot": "13",
            "type": "t_address"
          },
          {
            "astId": 12640,
            "contract": "contracts/protocol/Vault.sol:Vault",
            "label": "withdrawLimitModule",
            "offset": 0,
            "slot": "14",
            "type": "t_address"
          },
          {
            "astId": 12642,
            "contract": "contracts/protocol/Vault.sol:Vault",
            "label": "feeRecipient",
            "offset": 0,
            "slot": "15",
            "type": "t_address"
          },
          {
            "astId": 12644,
            "contract": "contracts/protocol/Vault.sol:Vault",
            "label": "managementFee",
            "offset": 0,
            "slot": "16",
            "type": "t_uint256"
          },
          {
            "astId": 12646,
            "contract": "contracts/protocol/Vault.sol:Vault",
            "label": "lastTimeTakeManagementFee",
            "offset": 0,
            "slot": "17",
            "type": "t_uint256"
          }
        ],
        "numberOfBytes": "576"
      },
      "t_uint256": {
        "encoding": "inplace",
        "label": "uint256",
        "numberOfBytes": "32"
      }
    }
  }
}